{
  "contractName": "SChainDapp",
  "abi": [
    {
      "inputs": [],
      "stateMutability": "nonpayable",
      "type": "constructor"
    },
    {
      "anonymous": false,
      "inputs": [
        {
          "indexed": false,
          "internalType": "address",
          "name": "sender",
          "type": "address"
        },
        {
          "indexed": false,
          "internalType": "string",
          "name": "hash",
          "type": "string"
        }
      ],
      "name": "Attest",
      "type": "event"
    },
    {
      "anonymous": false,
      "inputs": [
        {
          "indexed": false,
          "internalType": "uint256",
          "name": "prodId",
          "type": "uint256"
        },
        {
          "indexed": false,
          "internalType": "string",
          "name": "prodName",
          "type": "string"
        },
        {
          "indexed": false,
          "internalType": "string",
          "name": "prodInfo",
          "type": "string"
        },
        {
          "indexed": false,
          "internalType": "address",
          "name": "prodProducer",
          "type": "address"
        }
      ],
      "name": "LogAddProduct",
      "type": "event"
    },
    {
      "anonymous": false,
      "inputs": [
        {
          "indexed": false,
          "internalType": "bytes",
          "name": "data",
          "type": "bytes"
        }
      ],
      "name": "LogMsgData",
      "type": "event"
    },
    {
      "anonymous": false,
      "inputs": [
        {
          "indexed": true,
          "internalType": "address",
          "name": "previousOwner",
          "type": "address"
        },
        {
          "indexed": true,
          "internalType": "address",
          "name": "newOwner",
          "type": "address"
        }
      ],
      "name": "OwnershipTransferred",
      "type": "event"
    },
    {
      "inputs": [
        {
          "internalType": "address",
          "name": "",
          "type": "address"
        }
      ],
      "name": "attestations",
      "outputs": [
        {
          "internalType": "string",
          "name": "",
          "type": "string"
        }
      ],
      "stateMutability": "view",
      "type": "function",
      "constant": true
    },
    {
      "inputs": [
        {
          "internalType": "address",
          "name": "",
          "type": "address"
        }
      ],
      "name": "isProductOwners",
      "outputs": [
        {
          "internalType": "string",
          "name": "",
          "type": "string"
        }
      ],
      "stateMutability": "view",
      "type": "function",
      "constant": true
    },
    {
      "inputs": [
        {
          "internalType": "address",
          "name": "",
          "type": "address"
        }
      ],
      "name": "isSCadmins",
      "outputs": [
        {
          "internalType": "bool",
          "name": "",
          "type": "bool"
        }
      ],
      "stateMutability": "view",
      "type": "function",
      "constant": true
    },
    {
      "inputs": [],
      "name": "owner",
      "outputs": [
        {
          "internalType": "address",
          "name": "",
          "type": "address"
        }
      ],
      "stateMutability": "view",
      "type": "function",
      "constant": true
    },
    {
      "inputs": [],
      "name": "productIdCounter",
      "outputs": [
        {
          "internalType": "uint256",
          "name": "",
          "type": "uint256"
        }
      ],
      "stateMutability": "view",
      "type": "function",
      "constant": true
    },
    {
      "inputs": [
        {
          "internalType": "uint256",
          "name": "",
          "type": "uint256"
        }
      ],
      "name": "products",
      "outputs": [
        {
          "internalType": "uint256",
          "name": "productId",
          "type": "uint256"
        },
        {
          "internalType": "string",
          "name": "productName",
          "type": "string"
        },
        {
          "internalType": "string",
          "name": "productInfo",
          "type": "string"
        },
        {
          "internalType": "address payable",
          "name": "productProducer",
          "type": "address"
        },
        {
          "internalType": "uint256",
          "name": "productValue",
          "type": "uint256"
        },
        {
          "internalType": "string",
          "name": "productGpgga",
          "type": "string"
        },
        {
          "internalType": "string",
          "name": "productDest",
          "type": "string"
        }
      ],
      "stateMutability": "view",
      "type": "function",
      "constant": true
    },
    {
      "inputs": [],
      "name": "renounceOwnership",
      "outputs": [],
      "stateMutability": "nonpayable",
      "type": "function"
    },
    {
      "inputs": [],
      "name": "scAdmin",
      "outputs": [
        {
          "internalType": "address",
          "name": "",
          "type": "address"
        }
      ],
      "stateMutability": "view",
      "type": "function",
      "constant": true
    },
    {
      "inputs": [
        {
          "internalType": "address",
          "name": "newOwner",
          "type": "address"
        }
      ],
      "name": "transferOwnership",
      "outputs": [],
      "stateMutability": "nonpayable",
      "type": "function"
    },
    {
      "stateMutability": "payable",
      "type": "receive",
      "payable": true
    },
    {
      "inputs": [],
      "name": "kill",
      "outputs": [],
      "stateMutability": "nonpayable",
      "type": "function"
    },
    {
      "inputs": [
        {
          "internalType": "string",
          "name": "prodName",
          "type": "string"
        },
        {
          "internalType": "string",
          "name": "prodInfo",
          "type": "string"
        },
        {
          "internalType": "uint256",
          "name": "prodValue",
          "type": "uint256"
        },
        {
          "internalType": "string",
          "name": "prodGpgga",
          "type": "string"
        },
        {
          "internalType": "string",
          "name": "prodDest",
          "type": "string"
        }
      ],
      "name": "addProduct",
      "outputs": [],
      "stateMutability": "nonpayable",
      "type": "function"
    },
    {
      "inputs": [
        {
          "internalType": "uint256",
          "name": "_prodId",
          "type": "uint256"
        }
      ],
      "name": "getProductById",
      "outputs": [
        {
          "internalType": "uint256",
          "name": "",
          "type": "uint256"
        },
        {
          "internalType": "string",
          "name": "",
          "type": "string"
        },
        {
          "internalType": "string",
          "name": "",
          "type": "string"
        },
        {
          "internalType": "address",
          "name": "",
          "type": "address"
        },
        {
          "internalType": "uint256",
          "name": "",
          "type": "uint256"
        },
        {
          "internalType": "string",
          "name": "",
          "type": "string"
        },
        {
          "internalType": "string",
          "name": "",
          "type": "string"
        }
      ],
      "stateMutability": "view",
      "type": "function",
      "constant": true
    },
    {
      "inputs": [
        {
          "internalType": "string",
          "name": "hash",
          "type": "string"
        }
      ],
      "name": "attest",
      "outputs": [],
      "stateMutability": "nonpayable",
      "type": "function"
    }
  ],
  "bytecode": "0x608060405260006001553480156200001657600080fd5b506000620000296200023a60201b60201c565b9050806000806101000a81548173ffffffffffffffffffffffffffffffffffffffff021916908373ffffffffffffffffffffffffffffffffffffffff1602179055508073ffffffffffffffffffffffffffffffffffffffff16600073ffffffffffffffffffffffffffffffffffffffff167f8be0079c531659141344cd1fd0a4f28419497f9722a3daafe3b4186f6b6457e060405160405180910390a350620000d76200024260201b60201c565b600260006101000a81548173ffffffffffffffffffffffffffffffffffffffff021916908373ffffffffffffffffffffffffffffffffffffffff1602179055506200014a600260009054906101000a900473ffffffffffffffffffffffffffffffffffffffff166200026b60201b60201c565b620002346040518060400160405280600c81526020017f4578616d706c65204e616d6500000000000000000000000000000000000000008152506040518060400160405280600c81526020017f4578616d706c6520496e666f000000000000000000000000000000000000000081525060016040518060400160405280600881526020017f3030304e305730300000000000000000000000000000000000000000000000008152506040518060400160405280600281526020017f4e590000000000000000000000000000000000000000000000000000000000008152506200039860201b60201c565b620007ba565b600033905090565b60008060009054906101000a900473ffffffffffffffffffffffffffffffffffffffff16905090565b6200027b6200023a60201b60201c565b73ffffffffffffffffffffffffffffffffffffffff166000809054906101000a900473ffffffffffffffffffffffffffffffffffffffff1673ffffffffffffffffffffffffffffffffffffffff16146200033d576040517f08c379a00000000000000000000000000000000000000000000000000000000081526004018080602001828103825260208152602001807f4f776e61626c653a2063616c6c6572206973206e6f7420746865206f776e657281525060200191505060405180910390fd5b6001600360008373ffffffffffffffffffffffffffffffffffffffff1673ffffffffffffffffffffffffffffffffffffffff16815260200190815260200160002060006101000a81548160ff02191690831515021790555050565b620003a86200023a60201b60201c565b600360008273ffffffffffffffffffffffffffffffffffffffff1673ffffffffffffffffffffffffffffffffffffffff16815260200190815260200160002060009054906101000a900460ff166200044c576040517f08c379a0000000000000000000000000000000000000000000000000000000008152600401808060200182810382526027815260200180620027c16027913960400191505060405180910390fd5b6001600081548092919060010191905055506040518060e0016040528060015481526020018781526020018681526020016200048d6200023a60201b60201c565b73ffffffffffffffffffffffffffffffffffffffff16815260200185815260200184815260200183815250600660006001548152602001908152602001600020600082015181600001556020820151816001019080519060200190620004f59291906200070b565b506040820151816002019080519060200190620005149291906200070b565b5060608201518160030160006101000a81548173ffffffffffffffffffffffffffffffffffffffff021916908373ffffffffffffffffffffffffffffffffffffffff1602179055506080820151816004015560a0820151816005019080519060200190620005849291906200070b565b5060c0820151816006019080519060200190620005a39291906200070b565b509050507f052bb86a22f89d2b6493d6ac600744afa4f6c297a040d4f6521622554fd557a06001548787620005dd6200023a60201b60201c565b6040518085815260200180602001806020018473ffffffffffffffffffffffffffffffffffffffff1673ffffffffffffffffffffffffffffffffffffffff168152602001838103835286818151815260200191508051906020019080838360005b838110156200065b5780820151818401526020810190506200063e565b50505050905090810190601f168015620006895780820380516001836020036101000a031916815260200191505b50838103825285818151815260200191508051906020019080838360005b83811015620006c4578082015181840152602081019050620006a7565b50505050905090810190601f168015620006f25780820380516001836020036101000a031916815260200191505b50965050505050505060405180910390a1505050505050565b828054600181600116156101000203166002900490600052602060002090601f016020900481019282601f106200074e57805160ff19168380011785556200077f565b828001600101855582156200077f579182015b828111156200077e57825182559160200191906001019062000761565b5b5090506200078e919062000792565b5090565b620007b791905b80821115620007b357600081600090555060010162000799565b5090565b90565b611ff780620007ca6000396000f3fe6080604052600436106100c65760003560e01c806341c0e1b51161007f5780637acc0b20116100595780637acc0b20146108f05780638da5cb5b14610b29578063f2fde38b14610b80578063fd15b11d14610bd157610170565b806341c0e1b51461086b57806347688f6f14610882578063715018a6146108d957610170565b806306431afe146101755780631337638a1461023d57806320357048146104d45780632af1ff0d1461059e578063342ae8c6146106075780633f70c2b41461063257610170565b36610170577f84a7e86a5530dbab0d699a72cd56748c29585a63e9b2b8281b9acdf52e9d161e6100f4610c9b565b6040518080602001828103825283818151815260200191508051906020019080838360005b83811015610134578082015181840152602081019050610119565b50505050905090810190601f1680156101615780820380516001836020036101000a031916815260200191505b509250505060405180910390a1005b600080fd5b34801561018157600080fd5b5061023b6004803603602081101561019857600080fd5b81019080803590602001906401000000008111156101b557600080fd5b8201836020820111156101c757600080fd5b803590602001918460018302840111640100000000831117156101e957600080fd5b91908080601f016020809104026020016040519081016040528093929190818152602001838380828437600081840152601f19601f820116905080830192505050505050509192919290505050610ce8565b005b34801561024957600080fd5b506104d2600480360360a081101561026057600080fd5b810190808035906020019064010000000081111561027d57600080fd5b82018360208201111561028f57600080fd5b803590602001918460018302840111640100000000831117156102b157600080fd5b91908080601f016020809104026020016040519081016040528093929190818152602001838380828437600081840152601f19601f8201169050808301925050505050505091929192908035906020019064010000000081111561031457600080fd5b82018360208201111561032657600080fd5b8035906020019184600183028401116401000000008311171561034857600080fd5b91908080601f016020809104026020016040519081016040528093929190818152602001838380828437600081840152601f19601f82011690508083019250505050505050919291929080359060200190929190803590602001906401000000008111156103b557600080fd5b8201836020820111156103c757600080fd5b803590602001918460018302840111640100000000831117156103e957600080fd5b91908080601f016020809104026020016040519081016040528093929190818152602001838380828437600081840152601f19601f8201169050808301925050505050505091929192908035906020019064010000000081111561044c57600080fd5b82018360208201111561045e57600080fd5b8035906020019184600183028401116401000000008311171561048057600080fd5b91908080601f016020809104026020016040519081016040528093929190818152602001838380828437600081840152601f19601f820116905080830192505050505050509192919290505050610e0f565b005b3480156104e057600080fd5b50610523600480360360208110156104f757600080fd5b81019080803573ffffffffffffffffffffffffffffffffffffffff16906020019092919050505061115a565b6040518080602001828103825283818151815260200191508051906020019080838360005b83811015610563578082015181840152602081019050610548565b50505050905090810190601f1680156105905780820380516001836020036101000a031916815260200191505b509250505060405180910390f35b3480156105aa57600080fd5b506105ed600480360360208110156105c157600080fd5b81019080803573ffffffffffffffffffffffffffffffffffffffff16906020019092919050505061120a565b604051808215151515815260200191505060405180910390f35b34801561061357600080fd5b5061061c61122a565b6040518082815260200191505060405180910390f35b34801561063e57600080fd5b5061066b6004803603602081101561065557600080fd5b8101908080359060200190929190505050611230565b6040518088815260200180602001806020018773ffffffffffffffffffffffffffffffffffffffff1673ffffffffffffffffffffffffffffffffffffffff168152602001868152602001806020018060200185810385528b818151815260200191508051906020019080838360005b838110156106f55780820151818401526020810190506106da565b50505050905090810190601f1680156107225780820380516001836020036101000a031916815260200191505b5085810384528a818151815260200191508051906020019080838360005b8381101561075b578082015181840152602081019050610740565b50505050905090810190601f1680156107885780820380516001836020036101000a031916815260200191505b50858103835287818151815260200191508051906020019080838360005b838110156107c15780820151818401526020810190506107a6565b50505050905090810190601f1680156107ee5780820380516001836020036101000a031916815260200191505b50858103825286818151815260200191508051906020019080838360005b8381101561082757808201518184015260208101905061080c565b50505050905090810190601f1680156108545780820380516001836020036101000a031916815260200191505b509b50505050505050505050505060405180910390f35b34801561087757600080fd5b50610880611608565b005b34801561088e57600080fd5b506108976116f1565b604051808273ffffffffffffffffffffffffffffffffffffffff1673ffffffffffffffffffffffffffffffffffffffff16815260200191505060405180910390f35b3480156108e557600080fd5b506108ee611717565b005b3480156108fc57600080fd5b506109296004803603602081101561091357600080fd5b810190808035906020019092919050505061189f565b6040518088815260200180602001806020018773ffffffffffffffffffffffffffffffffffffffff1673ffffffffffffffffffffffffffffffffffffffff168152602001868152602001806020018060200185810385528b818151815260200191508051906020019080838360005b838110156109b3578082015181840152602081019050610998565b50505050905090810190601f1680156109e05780820380516001836020036101000a031916815260200191505b5085810384528a818151815260200191508051906020019080838360005b83811015610a195780820151818401526020810190506109fe565b50505050905090810190601f168015610a465780820380516001836020036101000a031916815260200191505b50858103835287818151815260200191508051906020019080838360005b83811015610a7f578082015181840152602081019050610a64565b50505050905090810190601f168015610aac5780820380516001836020036101000a031916815260200191505b50858103825286818151815260200191508051906020019080838360005b83811015610ae5578082015181840152602081019050610aca565b50505050905090810190601f168015610b125780820380516001836020036101000a031916815260200191505b509b50505050505050505050505060405180910390f35b348015610b3557600080fd5b50610b3e611b61565b604051808273ffffffffffffffffffffffffffffffffffffffff1673ffffffffffffffffffffffffffffffffffffffff16815260200191505060405180910390f35b348015610b8c57600080fd5b50610bcf60048036036020811015610ba357600080fd5b81019080803573ffffffffffffffffffffffffffffffffffffffff169060200190929190505050611b8a565b005b348015610bdd57600080fd5b50610c2060048036036020811015610bf457600080fd5b81019080803573ffffffffffffffffffffffffffffffffffffffff169060200190929190505050611d97565b6040518080602001828103825283818151815260200191508051906020019080838360005b83811015610c60578082015181840152602081019050610c45565b50505050905090810190601f168015610c8d5780820380516001836020036101000a031916815260200191505b509250505060405180910390f35b60606000368080601f016020809104026020016040519081016040528093929190818152602001838380828437600081840152601f19601f82011690508083019250505050505050905090565b7f3bcc68f1dca369aa1b98ef559db7b5f17c6b9bcd4a0c36554271ee5be7a9f18c3382604051808373ffffffffffffffffffffffffffffffffffffffff1673ffffffffffffffffffffffffffffffffffffffff16815260200180602001828103825283818151815260200191508051906020019080838360005b83811015610d7d578082015181840152602081019050610d62565b50505050905090810190601f168015610daa5780820380516001836020036101000a031916815260200191505b50935050505060405180910390a180600560003373ffffffffffffffffffffffffffffffffffffffff1673ffffffffffffffffffffffffffffffffffffffff1681526020019081526020016000209080519060200190610e0b929190611e4f565b5050565b610e17611e47565b600360008273ffffffffffffffffffffffffffffffffffffffff1673ffffffffffffffffffffffffffffffffffffffff16815260200190815260200160002060009054906101000a900460ff16610eb9576040517f08c379a0000000000000000000000000000000000000000000000000000000008152600401808060200182810382526027815260200180611f9b6027913960400191505060405180910390fd5b6001600081548092919060010191905055506040518060e001604052806001548152602001878152602001868152602001610ef2611e47565b73ffffffffffffffffffffffffffffffffffffffff16815260200185815260200184815260200183815250600660006001548152602001908152602001600020600082015181600001556020820151816001019080519060200190610f58929190611ecf565b506040820151816002019080519060200190610f75929190611ecf565b5060608201518160030160006101000a81548173ffffffffffffffffffffffffffffffffffffffff021916908373ffffffffffffffffffffffffffffffffffffffff1602179055506080820151816004015560a0820151816005019080519060200190610fe3929190611ecf565b5060c0820151816006019080519060200190611000929190611ecf565b509050507f052bb86a22f89d2b6493d6ac600744afa4f6c297a040d4f6521622554fd557a06001548787611032611e47565b6040518085815260200180602001806020018473ffffffffffffffffffffffffffffffffffffffff1673ffffffffffffffffffffffffffffffffffffffff168152602001838103835286818151815260200191508051906020019080838360005b838110156110ae578082015181840152602081019050611093565b50505050905090810190601f1680156110db5780820380516001836020036101000a031916815260200191505b50838103825285818151815260200191508051906020019080838360005b838110156111145780820151818401526020810190506110f9565b50505050905090810190601f1680156111415780820380516001836020036101000a031916815260200191505b50965050505050505060405180910390a1505050505050565b60056020528060005260406000206000915090508054600181600116156101000203166002900480601f0160208091040260200160405190810160405280929190818152602001828054600181600116156101000203166002900480156112025780601f106111d757610100808354040283529160200191611202565b820191906000526020600020905b8154815290600101906020018083116111e557829003601f168201915b505050505081565b60036020528060005260406000206000915054906101000a900460ff1681565b60015481565b600060608060008060608060008811801561124d57506001548811155b6112bf576040517f08c379a000000000000000000000000000000000000000000000000000000000815260040180806020018281038252601b8152602001807f5468652070726f64756374204964206973206e6f74207661696c64000000000081525060200191505060405180910390fd5b6006600089815260200190815260200160002060000154600660008a8152602001908152602001600020600101600660008b8152602001908152602001600020600201600660008c815260200190815260200160002060030160009054906101000a900473ffffffffffffffffffffffffffffffffffffffff16600660008d815260200190815260200160002060040154600660008e8152602001908152602001600020600501600660008f8152602001908152602001600020600601858054600181600116156101000203166002900480601f0160208091040260200160405190810160405280929190818152602001828054600181600116156101000203166002900480156114115780601f106113e657610100808354040283529160200191611411565b820191906000526020600020905b8154815290600101906020018083116113f457829003601f168201915b50505050509550848054600181600116156101000203166002900480601f0160208091040260200160405190810160405280929190818152602001828054600181600116156101000203166002900480156114ad5780601f10611482576101008083540402835291602001916114ad565b820191906000526020600020905b81548152906001019060200180831161149057829003601f168201915b50505050509450839350818054600181600116156101000203166002900480601f01602080910402602001604051908101604052809291908181526020018280546001816001161561010002031660029004801561154c5780601f106115215761010080835404028352916020019161154c565b820191906000526020600020905b81548152906001019060200180831161152f57829003601f168201915b50505050509150808054600181600116156101000203166002900480601f0160208091040260200160405190810160405280929190818152602001828054600181600116156101000203166002900480156115e85780601f106115bd576101008083540402835291602001916115e8565b820191906000526020600020905b8154815290600101906020018083116115cb57829003601f168201915b505050505090509650965096509650965096509650919395979092949650565b611610611e47565b73ffffffffffffffffffffffffffffffffffffffff166000809054906101000a900473ffffffffffffffffffffffffffffffffffffffff1673ffffffffffffffffffffffffffffffffffffffff16146116d1576040517f08c379a00000000000000000000000000000000000000000000000000000000081526004018080602001828103825260208152602001807f4f776e61626c653a2063616c6c6572206973206e6f7420746865206f776e657281525060200191505060405180910390fd5b6116d9611e47565b73ffffffffffffffffffffffffffffffffffffffff16ff5b600260009054906101000a900473ffffffffffffffffffffffffffffffffffffffff1681565b61171f611e47565b73ffffffffffffffffffffffffffffffffffffffff166000809054906101000a900473ffffffffffffffffffffffffffffffffffffffff1673ffffffffffffffffffffffffffffffffffffffff16146117e0576040517f08c379a00000000000000000000000000000000000000000000000000000000081526004018080602001828103825260208152602001807f4f776e61626c653a2063616c6c6572206973206e6f7420746865206f776e657281525060200191505060405180910390fd5b600073ffffffffffffffffffffffffffffffffffffffff166000809054906101000a900473ffffffffffffffffffffffffffffffffffffffff1673ffffffffffffffffffffffffffffffffffffffff167f8be0079c531659141344cd1fd0a4f28419497f9722a3daafe3b4186f6b6457e060405160405180910390a360008060006101000a81548173ffffffffffffffffffffffffffffffffffffffff021916908373ffffffffffffffffffffffffffffffffffffffff160217905550565b6006602052806000526040600020600091509050806000015490806001018054600181600116156101000203166002900480601f0160208091040260200160405190810160405280929190818152602001828054600181600116156101000203166002900480156119515780601f1061192657610100808354040283529160200191611951565b820191906000526020600020905b81548152906001019060200180831161193457829003601f168201915b505050505090806002018054600181600116156101000203166002900480601f0160208091040260200160405190810160405280929190818152602001828054600181600116156101000203166002900480156119ef5780601f106119c4576101008083540402835291602001916119ef565b820191906000526020600020905b8154815290600101906020018083116119d257829003601f168201915b5050505050908060030160009054906101000a900473ffffffffffffffffffffffffffffffffffffffff1690806004015490806005018054600181600116156101000203166002900480601f016020809104026020016040519081016040528092919081815260200182805460018160011615610100020316600290048015611ab95780601f10611a8e57610100808354040283529160200191611ab9565b820191906000526020600020905b815481529060010190602001808311611a9c57829003601f168201915b505050505090806006018054600181600116156101000203166002900480601f016020809104026020016040519081016040528092919081815260200182805460018160011615610100020316600290048015611b575780601f10611b2c57610100808354040283529160200191611b57565b820191906000526020600020905b815481529060010190602001808311611b3a57829003601f168201915b5050505050905087565b60008060009054906101000a900473ffffffffffffffffffffffffffffffffffffffff16905090565b611b92611e47565b73ffffffffffffffffffffffffffffffffffffffff166000809054906101000a900473ffffffffffffffffffffffffffffffffffffffff1673ffffffffffffffffffffffffffffffffffffffff1614611c53576040517f08c379a00000000000000000000000000000000000000000000000000000000081526004018080602001828103825260208152602001807f4f776e61626c653a2063616c6c6572206973206e6f7420746865206f776e657281525060200191505060405180910390fd5b600073ffffffffffffffffffffffffffffffffffffffff168173ffffffffffffffffffffffffffffffffffffffff161415611cd9576040517f08c379a0000000000000000000000000000000000000000000000000000000008152600401808060200182810382526026815260200180611f756026913960400191505060405180910390fd5b8073ffffffffffffffffffffffffffffffffffffffff166000809054906101000a900473ffffffffffffffffffffffffffffffffffffffff1673ffffffffffffffffffffffffffffffffffffffff167f8be0079c531659141344cd1fd0a4f28419497f9722a3daafe3b4186f6b6457e060405160405180910390a3806000806101000a81548173ffffffffffffffffffffffffffffffffffffffff021916908373ffffffffffffffffffffffffffffffffffffffff16021790555050565b60046020528060005260406000206000915090508054600181600116156101000203166002900480601f016020809104026020016040519081016040528092919081815260200182805460018160011615610100020316600290048015611e3f5780601f10611e1457610100808354040283529160200191611e3f565b820191906000526020600020905b815481529060010190602001808311611e2257829003601f168201915b505050505081565b600033905090565b828054600181600116156101000203166002900490600052602060002090601f016020900481019282601f10611e9057805160ff1916838001178555611ebe565b82800160010185558215611ebe579182015b82811115611ebd578251825591602001919060010190611ea2565b5b509050611ecb9190611f4f565b5090565b828054600181600116156101000203166002900490600052602060002090601f016020900481019282601f10611f1057805160ff1916838001178555611f3e565b82800160010185558215611f3e579182015b82811115611f3d578251825591602001919060010190611f22565b5b509050611f4b9190611f4f565b5090565b611f7191905b80821115611f6d576000816000905550600101611f55565b5090565b9056fe4f776e61626c653a206e6577206f776e657220697320746865207a65726f20616464726573734d75737420626520616e2061646d696e20746f2063616c6c20746869732066756e6374696f6e2ea2646970667358221220e77abd2c7d0e0b4d18e28680932a810b97fdc66ce659445822afd78beba73f9764736f6c634300060000334d75737420626520616e2061646d696e20746f2063616c6c20746869732066756e6374696f6e2e",
  "source": "// SPDX-License-Identifier: UNLICENSED\npragma solidity >=0.6.0 <0.8.0;\n\n/// @title SupplyChain\n/// @author HackFS Supply Chain\n/// @notice Implements Decentralized Supply Chain\n\n\nimport \"./Ownable.sol\";\n\ncontract SChainDapp is Ownable {\n\n    /// @dev store the product count/id (public for getter())\n    uint public productIdCounter = 0;\n\n    address public scAdmin;\n    mapping(address => bool) public isSCadmins;\n    mapping(address => string) public isProductOwners;\n\n    mapping (address => string) public attestations;\n\n    /// @notice A Product:\n    /// @param Product Id: @productId\n    /// @param Product Name: @productName\n    /// @param Product Info: @productInfo\n    /// @param Product Producer: @productProducer\n    /// @param Product Name: @productValue\n    /// @param Product GPA: @productGpgga\n    /// @param Product Destination: @productDest\n    struct Product {\n        uint productId;\n        string productName;\n        string productInfo;\n        address payable productProducer;\n        uint256 productValue;\n        string productGpgga;\n        string productDest;\n    }\n \n    mapping (uint => Product) public products;\n\n    /// @notice LogMsgData should provide the MsgData\n    event LogMsgData(\n        bytes data\n    );\n\n    /// @notice LogAddProduct should provide info about the product\n    /// @param prodId the product id\n    /// @param prodName the product name\n    /// @param prodInfo the product info\n    /// @param prodProducer the product producer\n    event LogAddProduct(\n        uint prodId,\n        string prodName,\n        string prodInfo,\n        address prodProducer\n    );\n\n    /// @notice Create a modifier that throws an error if the address !isAdmin\n    /// @param _isAdmin the new admin\n    modifier onlyAdmin(address _isAdmin) {\n        require(\n            isSCadmins[_isAdmin],\n            \"Must be an admin to call this function.\"\n        );\n        _;\n    }\n\n    /// @notice Calling the Ownable constructor to insure that the address deploying this contract is \n    /// regsitered as owner and to set owner as an admin\n    constructor() \n        public\n        Ownable()\n    {\n        scAdmin = owner();      \n        addAdmin(scAdmin);\n        addProduct(\n            \"Example Name\",\n            \"Example Info\",\n            1,\n            \"000N0W00\",\n            \"NY\"\n        );\n    }\n\n    /// @notice Payable fallback\n    receive() external payable {\n        emit LogMsgData(_msgData());\n    }\n\n    /// @notice kill the smart contract\n    function kill() public onlyOwner {\n        selfdestruct(_msgSender());\n    }\n    \n    /// @notice This function adds an MPadmin\n    /// @param _newAdmin the new admin\n    function addAdmin(address _newAdmin)\n        internal\n        virtual\n        onlyOwner\n    {  \n        isSCadmins[_newAdmin] = true;\n    }\n\n    /// @notice This function adds a Product\n    /// @dev The productId is derived from the counter\n    /// @param prodInfo Any product info\n    function addProduct(\n        string memory prodName,\n        string memory prodInfo,\n        uint256 prodValue,\n        string memory prodGpgga,\n        string memory prodDest\n    )\n        public\n        onlyAdmin(_msgSender())\n    {\n        productIdCounter++;\n\n        /// @notice update via productId\n        products[productIdCounter] = Product(\n            productIdCounter,\n            prodName,\n            prodInfo,\n            _msgSender(),\n            prodValue,\n            prodGpgga,\n            prodDest\n        );\n\n        emit LogAddProduct(productIdCounter, prodName, prodInfo, _msgSender()); \n    }\n\n    /// @notice Returns Product\n    /// @return product's id\n    /// @return product's name\n    /// @return product's info\n    /// @return product's producer\n    /// @return product's value\n    /// @return product's gpgga\n    /// @return product's dest\n    function getProductById(uint _prodId)\n        public\n        view\n        returns (\n            uint,\n            string memory,\n            string memory,\n            address,\n            uint256,\n            string memory,\n            string memory\n        )\n    {\n          require(\n              _prodId > 0 && _prodId <= productIdCounter,\n              \"The product Id is not vaild\"\n          );\n\n          return (\n              products[_prodId].productId,\n              products[_prodId].productName,\n              products[_prodId].productInfo,\n              products[_prodId].productProducer,\n              products[_prodId].productValue,\n              products[_prodId].productGpgga,\n              products[_prodId].productDest\n        );\n    }\n\n    function attest(string memory hash) public {\n       // console.log(msg.sender,\"attests to\",hash);\n       emit Attest(msg.sender,hash);\n       attestations[msg.sender] = hash;\n    }\n  \n    event Attest(address sender, string hash);\n\n}\n",
  "sourcePath": "/Users/kokom/DEV/HackFS/hkfsschain/contracts/SChainDapp.sol",
  "compiler": {
    "name": "solc",
    "version": "0.6.0+commit.26b70077.Emscripten.clang"
  },
  "schemaVersion": "3.2.3",
  "updatedAt": "2020-08-14T20:27:50.113Z",
  "networkType": "ethereum",
  "devdoc": {
    "methods": {
      "addProduct(string,string,uint256,string,string)": {
        "details": "The productId is derived from the counter",
        "params": {
          "prodInfo": "Any product info"
        }
      },
      "owner()": {
        "details": "Returns the address of the current owner."
      },
      "renounceOwnership()": {
        "details": "Leaves the contract without owner. It will not be possible to call `onlyOwner` functions anymore. Can only be called by the current owner.     * NOTE: Renouncing ownership will leave the contract without an owner, thereby removing any functionality that is only available to the owner."
      },
      "transferOwnership(address)": {
        "details": "Transfers ownership of the contract to a new account (`newOwner`). Can only be called by the current owner."
      }
    }
  },
  "userdoc": {
    "methods": {
      "addProduct(string,string,uint256,string,string)": {
        "notice": "This function adds a Product"
      },
      "constructor": "Calling the Ownable constructor to insure that the address deploying this contract is  regsitered as owner and to set owner as an admin",
      "getProductById(uint256)": {
        "notice": "Returns Product"
      },
      "kill()": {
        "notice": "kill the smart contract"
      }
    }
  }
}