{
  "contractName": "SChainDapp",
  "abi": [
    {
      "inputs": [],
      "stateMutability": "nonpayable",
      "type": "constructor"
    },
    {
      "anonymous": false,
      "inputs": [
        {
          "indexed": false,
          "internalType": "address",
          "name": "sender",
          "type": "address"
        },
        {
          "indexed": false,
          "internalType": "string",
          "name": "hash",
          "type": "string"
        }
      ],
      "name": "Attest",
      "type": "event"
    },
    {
      "anonymous": false,
      "inputs": [
        {
          "indexed": false,
          "internalType": "uint256",
          "name": "prodId",
          "type": "uint256"
        },
        {
          "indexed": false,
          "internalType": "string",
          "name": "prodInfo",
          "type": "string"
        },
        {
          "indexed": false,
          "internalType": "address",
          "name": "prodProducer",
          "type": "address"
        }
      ],
      "name": "LogAddProduct",
      "type": "event"
    },
    {
      "anonymous": false,
      "inputs": [
        {
          "indexed": false,
          "internalType": "bytes",
          "name": "data",
          "type": "bytes"
        }
      ],
      "name": "LogMsgData",
      "type": "event"
    },
    {
      "anonymous": false,
      "inputs": [
        {
          "indexed": true,
          "internalType": "address",
          "name": "previousOwner",
          "type": "address"
        },
        {
          "indexed": true,
          "internalType": "address",
          "name": "newOwner",
          "type": "address"
        }
      ],
      "name": "OwnershipTransferred",
      "type": "event"
    },
    {
      "inputs": [
        {
          "internalType": "address",
          "name": "",
          "type": "address"
        }
      ],
      "name": "attestations",
      "outputs": [
        {
          "internalType": "string",
          "name": "",
          "type": "string"
        }
      ],
      "stateMutability": "view",
      "type": "function",
      "constant": true
    },
    {
      "inputs": [
        {
          "internalType": "address",
          "name": "",
          "type": "address"
        }
      ],
      "name": "isProductOwners",
      "outputs": [
        {
          "internalType": "string",
          "name": "",
          "type": "string"
        }
      ],
      "stateMutability": "view",
      "type": "function",
      "constant": true
    },
    {
      "inputs": [
        {
          "internalType": "address",
          "name": "",
          "type": "address"
        }
      ],
      "name": "isSCadmins",
      "outputs": [
        {
          "internalType": "bool",
          "name": "",
          "type": "bool"
        }
      ],
      "stateMutability": "view",
      "type": "function",
      "constant": true
    },
    {
      "inputs": [],
      "name": "owner",
      "outputs": [
        {
          "internalType": "address",
          "name": "",
          "type": "address"
        }
      ],
      "stateMutability": "view",
      "type": "function",
      "constant": true
    },
    {
      "inputs": [],
      "name": "productIdCounter",
      "outputs": [
        {
          "internalType": "uint256",
          "name": "",
          "type": "uint256"
        }
      ],
      "stateMutability": "view",
      "type": "function",
      "constant": true
    },
    {
      "inputs": [
        {
          "internalType": "uint256",
          "name": "",
          "type": "uint256"
        }
      ],
      "name": "products",
      "outputs": [
        {
          "internalType": "uint256",
          "name": "productId",
          "type": "uint256"
        },
        {
          "internalType": "string",
          "name": "productInfo",
          "type": "string"
        },
        {
          "internalType": "address payable",
          "name": "productProducer",
          "type": "address"
        }
      ],
      "stateMutability": "view",
      "type": "function",
      "constant": true
    },
    {
      "inputs": [],
      "name": "renounceOwnership",
      "outputs": [],
      "stateMutability": "nonpayable",
      "type": "function"
    },
    {
      "inputs": [],
      "name": "scAdmin",
      "outputs": [
        {
          "internalType": "address",
          "name": "",
          "type": "address"
        }
      ],
      "stateMutability": "view",
      "type": "function",
      "constant": true
    },
    {
      "inputs": [
        {
          "internalType": "address",
          "name": "newOwner",
          "type": "address"
        }
      ],
      "name": "transferOwnership",
      "outputs": [],
      "stateMutability": "nonpayable",
      "type": "function"
    },
    {
      "stateMutability": "payable",
      "type": "receive",
      "payable": true
    },
    {
      "inputs": [],
      "name": "kill",
      "outputs": [],
      "stateMutability": "nonpayable",
      "type": "function"
    },
    {
      "inputs": [
        {
          "internalType": "string",
          "name": "prodInfo",
          "type": "string"
        }
      ],
      "name": "addProduct",
      "outputs": [],
      "stateMutability": "nonpayable",
      "type": "function"
    },
    {
      "inputs": [
        {
          "internalType": "uint256",
          "name": "_prodId",
          "type": "uint256"
        }
      ],
      "name": "getProductById",
      "outputs": [
        {
          "internalType": "uint256",
          "name": "",
          "type": "uint256"
        },
        {
          "internalType": "string",
          "name": "",
          "type": "string"
        },
        {
          "internalType": "address",
          "name": "",
          "type": "address"
        }
      ],
      "stateMutability": "view",
      "type": "function",
      "constant": true
    },
    {
      "inputs": [
        {
          "internalType": "string",
          "name": "hash",
          "type": "string"
        }
      ],
      "name": "attest",
      "outputs": [],
      "stateMutability": "nonpayable",
      "type": "function"
    }
  ],
  "bytecode": "0x608060405260006001553480156200001657600080fd5b506000620000296200019660201b60201c565b9050806000806101000a81548173ffffffffffffffffffffffffffffffffffffffff021916908373ffffffffffffffffffffffffffffffffffffffff1602179055508073ffffffffffffffffffffffffffffffffffffffff16600073ffffffffffffffffffffffffffffffffffffffff167f8be0079c531659141344cd1fd0a4f28419497f9722a3daafe3b4186f6b6457e060405160405180910390a350620000d76200019e60201b60201c565b600260006101000a81548173ffffffffffffffffffffffffffffffffffffffff021916908373ffffffffffffffffffffffffffffffffffffffff1602179055506200014a600260009054906101000a900473ffffffffffffffffffffffffffffffffffffffff16620001c760201b60201c565b620001906040518060400160405280600f81526020017f4578616d706c652070726f647563740000000000000000000000000000000000815250620002f460201b60201c565b62000623565b600033905090565b60008060009054906101000a900473ffffffffffffffffffffffffffffffffffffffff16905090565b620001d76200019660201b60201c565b73ffffffffffffffffffffffffffffffffffffffff166000809054906101000a900473ffffffffffffffffffffffffffffffffffffffff1673ffffffffffffffffffffffffffffffffffffffff161462000299576040517f08c379a00000000000000000000000000000000000000000000000000000000081526004018080602001828103825260208152602001807f4f776e61626c653a2063616c6c6572206973206e6f7420746865206f776e657281525060200191505060405180910390fd5b6001600360008373ffffffffffffffffffffffffffffffffffffffff1673ffffffffffffffffffffffffffffffffffffffff16815260200190815260200160002060006101000a81548160ff02191690831515021790555050565b620003046200019660201b60201c565b600360008273ffffffffffffffffffffffffffffffffffffffff1673ffffffffffffffffffffffffffffffffffffffff16815260200190815260200160002060009054906101000a900460ff16620003a8576040517f08c379a000000000000000000000000000000000000000000000000000000000815260040180806020018281038252602781526020018062001cbc6027913960400191505060405180910390fd5b60016000815480929190600101919050555060405180606001604052806001548152602001838152602001620003e36200019660201b60201c565b73ffffffffffffffffffffffffffffffffffffffff168152506006600060015481526020019081526020016000206000820151816000015560208201518160010190805190602001906200043992919062000574565b5060408201518160020160006101000a81548173ffffffffffffffffffffffffffffffffffffffff021916908373ffffffffffffffffffffffffffffffffffffffff1602179055509050507f5b4b75507fec3fac82d0c15319907fd11ad7f546f0421174c4fb1213130855fd60015483620004b96200019660201b60201c565b60405180848152602001806020018373ffffffffffffffffffffffffffffffffffffffff1673ffffffffffffffffffffffffffffffffffffffff168152602001828103825284818151815260200191508051906020019080838360005b838110156200053357808201518184015260208101905062000516565b50505050905090810190601f168015620005615780820380516001836020036101000a031916815260200191505b5094505050505060405180910390a15050565b828054600181600116156101000203166002900490600052602060002090601f016020900481019282601f10620005b757805160ff1916838001178555620005e8565b82800160010185558215620005e8579182015b82811115620005e7578251825591602001919060010190620005ca565b5b509050620005f79190620005fb565b5090565b6200062091905b808211156200061c57600081600090555060010162000602565b5090565b90565b61168980620006336000396000f3fe6080604052600436106100c65760003560e01c806347688f6f1161007f5780638da5cb5b116100595780638da5cb5b146105fc578063dfe00c5114610653578063f2fde38b1461071b578063fd15b11d1461076c57610170565b806347688f6f146104a0578063715018a6146104f75780637acc0b201461050e57610170565b806306431afe14610175578063203570481461023d5780632af1ff0d14610307578063342ae8c6146103705780633f70c2b41461039b57806341c0e1b51461048957610170565b36610170577f84a7e86a5530dbab0d699a72cd56748c29585a63e9b2b8281b9acdf52e9d161e6100f4610836565b6040518080602001828103825283818151815260200191508051906020019080838360005b83811015610134578082015181840152602081019050610119565b50505050905090810190601f1680156101615780820380516001836020036101000a031916815260200191505b509250505060405180910390a1005b600080fd5b34801561018157600080fd5b5061023b6004803603602081101561019857600080fd5b81019080803590602001906401000000008111156101b557600080fd5b8201836020820111156101c757600080fd5b803590602001918460018302840111640100000000831117156101e957600080fd5b91908080601f016020809104026020016040519081016040528093929190818152602001838380828437600081840152601f19601f820116905080830192505050505050509192919290505050610883565b005b34801561024957600080fd5b5061028c6004803603602081101561026057600080fd5b81019080803573ffffffffffffffffffffffffffffffffffffffff1690602001909291905050506109aa565b6040518080602001828103825283818151815260200191508051906020019080838360005b838110156102cc5780820151818401526020810190506102b1565b50505050905090810190601f1680156102f95780820380516001836020036101000a031916815260200191505b509250505060405180910390f35b34801561031357600080fd5b506103566004803603602081101561032a57600080fd5b81019080803573ffffffffffffffffffffffffffffffffffffffff169060200190929190505050610a5a565b604051808215151515815260200191505060405180910390f35b34801561037c57600080fd5b50610385610a7a565b6040518082815260200191505060405180910390f35b3480156103a757600080fd5b506103d4600480360360208110156103be57600080fd5b8101908080359060200190929190505050610a80565b60405180848152602001806020018373ffffffffffffffffffffffffffffffffffffffff1673ffffffffffffffffffffffffffffffffffffffff168152602001828103825284818151815260200191508051906020019080838360005b8381101561044c578082015181840152602081019050610431565b50505050905090810190601f1680156104795780820380516001836020036101000a031916815260200191505b5094505050505060405180910390f35b34801561049557600080fd5b5061049e610c19565b005b3480156104ac57600080fd5b506104b5610d02565b604051808273ffffffffffffffffffffffffffffffffffffffff1673ffffffffffffffffffffffffffffffffffffffff16815260200191505060405180910390f35b34801561050357600080fd5b5061050c610d28565b005b34801561051a57600080fd5b506105476004803603602081101561053157600080fd5b8101908080359060200190929190505050610eb0565b60405180848152602001806020018373ffffffffffffffffffffffffffffffffffffffff1673ffffffffffffffffffffffffffffffffffffffff168152602001828103825284818151815260200191508051906020019080838360005b838110156105bf5780820151818401526020810190506105a4565b50505050905090810190601f1680156105ec5780820380516001836020036101000a031916815260200191505b5094505050505060405180910390f35b34801561060857600080fd5b50610611610f92565b604051808273ffffffffffffffffffffffffffffffffffffffff1673ffffffffffffffffffffffffffffffffffffffff16815260200191505060405180910390f35b34801561065f57600080fd5b506107196004803603602081101561067657600080fd5b810190808035906020019064010000000081111561069357600080fd5b8201836020820111156106a557600080fd5b803590602001918460018302840111640100000000831117156106c757600080fd5b91908080601f016020809104026020016040519081016040528093929190818152602001838380828437600081840152601f19601f820116905080830192505050505050509192919290505050610fbb565b005b34801561072757600080fd5b5061076a6004803603602081101561073e57600080fd5b81019080803573ffffffffffffffffffffffffffffffffffffffff16906020019092919050505061121c565b005b34801561077857600080fd5b506107bb6004803603602081101561078f57600080fd5b81019080803573ffffffffffffffffffffffffffffffffffffffff169060200190929190505050611429565b6040518080602001828103825283818151815260200191508051906020019080838360005b838110156107fb5780820151818401526020810190506107e0565b50505050905090810190601f1680156108285780820380516001836020036101000a031916815260200191505b509250505060405180910390f35b60606000368080601f016020809104026020016040519081016040528093929190818152602001838380828437600081840152601f19601f82011690508083019250505050505050905090565b7f3bcc68f1dca369aa1b98ef559db7b5f17c6b9bcd4a0c36554271ee5be7a9f18c3382604051808373ffffffffffffffffffffffffffffffffffffffff1673ffffffffffffffffffffffffffffffffffffffff16815260200180602001828103825283818151815260200191508051906020019080838360005b838110156109185780820151818401526020810190506108fd565b50505050905090810190601f1680156109455780820380516001836020036101000a031916815260200191505b50935050505060405180910390a180600560003373ffffffffffffffffffffffffffffffffffffffff1673ffffffffffffffffffffffffffffffffffffffff16815260200190815260200160002090805190602001906109a69291906114e1565b5050565b60056020528060005260406000206000915090508054600181600116156101000203166002900480601f016020809104026020016040519081016040528092919081815260200182805460018160011615610100020316600290048015610a525780601f10610a2757610100808354040283529160200191610a52565b820191906000526020600020905b815481529060010190602001808311610a3557829003601f168201915b505050505081565b60036020528060005260406000206000915054906101000a900460ff1681565b60015481565b6000606060008084118015610a9757506001548411155b610b09576040517f08c379a000000000000000000000000000000000000000000000000000000000815260040180806020018281038252601b8152602001807f5468652070726f64756374204964206973206e6f74207661696c64000000000081525060200191505060405180910390fd5b6006600085815260200190815260200160002060000154600660008681526020019081526020016000206001016006600087815260200190815260200160002060020160009054906101000a900473ffffffffffffffffffffffffffffffffffffffff16818054600181600116156101000203166002900480601f016020809104026020016040519081016040528092919081815260200182805460018160011615610100020316600290048015610c025780601f10610bd757610100808354040283529160200191610c02565b820191906000526020600020905b815481529060010190602001808311610be557829003601f168201915b505050505091508090509250925092509193909250565b610c216114d9565b73ffffffffffffffffffffffffffffffffffffffff166000809054906101000a900473ffffffffffffffffffffffffffffffffffffffff1673ffffffffffffffffffffffffffffffffffffffff1614610ce2576040517f08c379a00000000000000000000000000000000000000000000000000000000081526004018080602001828103825260208152602001807f4f776e61626c653a2063616c6c6572206973206e6f7420746865206f776e657281525060200191505060405180910390fd5b610cea6114d9565b73ffffffffffffffffffffffffffffffffffffffff16ff5b600260009054906101000a900473ffffffffffffffffffffffffffffffffffffffff1681565b610d306114d9565b73ffffffffffffffffffffffffffffffffffffffff166000809054906101000a900473ffffffffffffffffffffffffffffffffffffffff1673ffffffffffffffffffffffffffffffffffffffff1614610df1576040517f08c379a00000000000000000000000000000000000000000000000000000000081526004018080602001828103825260208152602001807f4f776e61626c653a2063616c6c6572206973206e6f7420746865206f776e657281525060200191505060405180910390fd5b600073ffffffffffffffffffffffffffffffffffffffff166000809054906101000a900473ffffffffffffffffffffffffffffffffffffffff1673ffffffffffffffffffffffffffffffffffffffff167f8be0079c531659141344cd1fd0a4f28419497f9722a3daafe3b4186f6b6457e060405160405180910390a360008060006101000a81548173ffffffffffffffffffffffffffffffffffffffff021916908373ffffffffffffffffffffffffffffffffffffffff160217905550565b6006602052806000526040600020600091509050806000015490806001018054600181600116156101000203166002900480601f016020809104026020016040519081016040528092919081815260200182805460018160011615610100020316600290048015610f625780601f10610f3757610100808354040283529160200191610f62565b820191906000526020600020905b815481529060010190602001808311610f4557829003601f168201915b5050505050908060020160009054906101000a900473ffffffffffffffffffffffffffffffffffffffff16905083565b60008060009054906101000a900473ffffffffffffffffffffffffffffffffffffffff16905090565b610fc36114d9565b600360008273ffffffffffffffffffffffffffffffffffffffff1673ffffffffffffffffffffffffffffffffffffffff16815260200190815260200160002060009054906101000a900460ff16611065576040517f08c379a000000000000000000000000000000000000000000000000000000000815260040180806020018281038252602781526020018061162d6027913960400191505060405180910390fd5b600160008154809291906001019190505550604051806060016040528060015481526020018381526020016110986114d9565b73ffffffffffffffffffffffffffffffffffffffff168152506006600060015481526020019081526020016000206000820151816000015560208201518160010190805190602001906110ec929190611561565b5060408201518160020160006101000a81548173ffffffffffffffffffffffffffffffffffffffff021916908373ffffffffffffffffffffffffffffffffffffffff1602179055509050507f5b4b75507fec3fac82d0c15319907fd11ad7f546f0421174c4fb1213130855fd600154836111646114d9565b60405180848152602001806020018373ffffffffffffffffffffffffffffffffffffffff1673ffffffffffffffffffffffffffffffffffffffff168152602001828103825284818151815260200191508051906020019080838360005b838110156111dc5780820151818401526020810190506111c1565b50505050905090810190601f1680156112095780820380516001836020036101000a031916815260200191505b5094505050505060405180910390a15050565b6112246114d9565b73ffffffffffffffffffffffffffffffffffffffff166000809054906101000a900473ffffffffffffffffffffffffffffffffffffffff1673ffffffffffffffffffffffffffffffffffffffff16146112e5576040517f08c379a00000000000000000000000000000000000000000000000000000000081526004018080602001828103825260208152602001807f4f776e61626c653a2063616c6c6572206973206e6f7420746865206f776e657281525060200191505060405180910390fd5b600073ffffffffffffffffffffffffffffffffffffffff168173ffffffffffffffffffffffffffffffffffffffff16141561136b576040517f08c379a00000000000000000000000000000000000000000000000000000000081526004018080602001828103825260268152602001806116076026913960400191505060405180910390fd5b8073ffffffffffffffffffffffffffffffffffffffff166000809054906101000a900473ffffffffffffffffffffffffffffffffffffffff1673ffffffffffffffffffffffffffffffffffffffff167f8be0079c531659141344cd1fd0a4f28419497f9722a3daafe3b4186f6b6457e060405160405180910390a3806000806101000a81548173ffffffffffffffffffffffffffffffffffffffff021916908373ffffffffffffffffffffffffffffffffffffffff16021790555050565b60046020528060005260406000206000915090508054600181600116156101000203166002900480601f0160208091040260200160405190810160405280929190818152602001828054600181600116156101000203166002900480156114d15780601f106114a6576101008083540402835291602001916114d1565b820191906000526020600020905b8154815290600101906020018083116114b457829003601f168201915b505050505081565b600033905090565b828054600181600116156101000203166002900490600052602060002090601f016020900481019282601f1061152257805160ff1916838001178555611550565b82800160010185558215611550579182015b8281111561154f578251825591602001919060010190611534565b5b50905061155d91906115e1565b5090565b828054600181600116156101000203166002900490600052602060002090601f016020900481019282601f106115a257805160ff19168380011785556115d0565b828001600101855582156115d0579182015b828111156115cf5782518255916020019190600101906115b4565b5b5090506115dd91906115e1565b5090565b61160391905b808211156115ff5760008160009055506001016115e7565b5090565b9056fe4f776e61626c653a206e6577206f776e657220697320746865207a65726f20616464726573734d75737420626520616e2061646d696e20746f2063616c6c20746869732066756e6374696f6e2ea26469706673582212208a78daa3f94c792085d437ba1cccc457139697c58c105b7e3d3eae1f850e459264736f6c634300060000334d75737420626520616e2061646d696e20746f2063616c6c20746869732066756e6374696f6e2e",
  "source": "// SPDX-License-Identifier: UNLICENSED\npragma solidity >=0.6.0 <0.8.0;\n\n/// @title SupplyChain\n/// @author HackFS Supply Chain\n/// @notice Implements Decentralized Supply Chain\n\n\nimport \"./Ownable.sol\";\n\ncontract SChainDapp is Ownable {\n\n    /// @dev store the product count/id (public for getter())\n    uint public productIdCounter = 0;\n\n    address public scAdmin;\n    mapping(address => bool) public isSCadmins;\n    mapping(address => string) public isProductOwners;\n\n    mapping (address => string) public attestations;\n\n    /// @notice A Product:\n    /// @param Product Id: @productId\n    /// @param Product Info: @productInfo\n    /// @param Product Producer: @productProducer\n    struct Product {\n        uint productId;\n        string productInfo;\n        address payable productProducer;\n    }\n \n    mapping (uint => Product) public products;\n\n    /// @notice LogMsgData should provide the MsgData\n    event LogMsgData(\n        bytes data\n    );\n\n    /// @notice LogAddProduct should provide info about the product\n    /// @param prodId the product id\n    /// @param prodInfo the product info\n    /// @param prodProducer the product producer\n    event LogAddProduct(\n        uint prodId,\n        string prodInfo,\n        address prodProducer\n    );\n\n    /// @notice Create a modifier that throws an error if the address !isAdmin\n    /// @param _isAdmin the new admin\n    modifier onlyAdmin(address _isAdmin) {\n        require(\n            isSCadmins[_isAdmin],\n            \"Must be an admin to call this function.\"\n        );\n        _;\n    }\n\n    /// @notice Calling the Ownable constructor to insure that the address deploying this contract is \n    /// regsitered as owner and to set owner as an admin\n    constructor() \n        public\n        Ownable()\n    {\n        scAdmin = owner();      \n        addAdmin(scAdmin);\n        addProduct(\"Example product\");\n    }\n\n    /// @notice Payable fallback\n    receive() external payable {\n        emit LogMsgData(_msgData());\n    }\n\n    /// @notice kill the smart contract\n    function kill() public onlyOwner {\n        selfdestruct(_msgSender());\n    }\n    \n    /// @notice This function adds an MPadmin\n    /// @param _newAdmin the new admin\n    function addAdmin(address _newAdmin)\n        internal\n        virtual\n        onlyOwner\n    {  \n        isSCadmins[_newAdmin] = true;\n    }\n\n    /// @notice This function adds a Product\n    /// @dev The productId is derived from the counter\n    /// @param prodInfo Any product info\n    function addProduct(\n        string memory prodInfo\n    )\n        public\n        onlyAdmin(_msgSender())\n    {\n        productIdCounter++;\n\n        /// @notice update via productId\n        products[productIdCounter] = Product(\n            productIdCounter,\n            prodInfo,\n            _msgSender()\n        );\n\n        emit LogAddProduct(productIdCounter, prodInfo, _msgSender()); \n    }\n\n    /// @notice Returns Product\n    /// @return product's Id\n    /// @return product's info\n    /// @return product's producer\n    function getProductById(uint _prodId)\n        public\n        view\n        returns (\n            uint,\n            string memory,\n            address \n        )\n    {\n          require(\n              _prodId > 0 && _prodId <= productIdCounter,\n              \"The product Id is not vaild\"\n          );\n\n          return (\n              products[_prodId].productId,\n              products[_prodId].productInfo,\n              products[_prodId].productProducer\n        );\n    }\n\n    function attest(string memory hash) public {\n       // console.log(msg.sender,\"attests to\",hash);\n       emit Attest(msg.sender,hash);\n       attestations[msg.sender] = hash;\n    }\n  \n    event Attest(address sender, string hash);\n\n}\n",
  "sourcePath": "/Users/kokom/DEV/HackFS/hkfsschain/contracts/SChainDapp.sol",
  "compiler": {
    "name": "solc",
    "version": "0.6.0+commit.26b70077.Emscripten.clang"
  },
  "schemaVersion": "3.2.3",
  "updatedAt": "2020-08-11T01:44:32.637Z",
  "networkType": "ethereum",
  "devdoc": {
    "methods": {
      "addProduct(string)": {
        "details": "The productId is derived from the counter",
        "params": {
          "prodInfo": "Any product info"
        }
      },
      "owner()": {
        "details": "Returns the address of the current owner."
      },
      "renounceOwnership()": {
        "details": "Leaves the contract without owner. It will not be possible to call `onlyOwner` functions anymore. Can only be called by the current owner.     * NOTE: Renouncing ownership will leave the contract without an owner, thereby removing any functionality that is only available to the owner."
      },
      "transferOwnership(address)": {
        "details": "Transfers ownership of the contract to a new account (`newOwner`). Can only be called by the current owner."
      }
    }
  },
  "userdoc": {
    "methods": {
      "addProduct(string)": {
        "notice": "This function adds a Product"
      },
      "constructor": "Calling the Ownable constructor to insure that the address deploying this contract is  regsitered as owner and to set owner as an admin",
      "getProductById(uint256)": {
        "notice": "Returns Product"
      },
      "kill()": {
        "notice": "kill the smart contract"
      }
    }
  }
}