{
  "contractName": "SChainDapp",
  "abi": [
    {
      "inputs": [],
      "stateMutability": "nonpayable",
      "type": "constructor"
    },
    {
      "anonymous": false,
      "inputs": [
        {
          "indexed": false,
          "internalType": "address",
          "name": "sender",
          "type": "address"
        },
        {
          "indexed": false,
          "internalType": "string",
          "name": "hash",
          "type": "string"
        }
      ],
      "name": "Attest",
      "type": "event"
    },
    {
      "anonymous": false,
      "inputs": [
        {
          "indexed": false,
          "internalType": "uint256",
          "name": "prodId",
          "type": "uint256"
        },
        {
          "indexed": false,
          "internalType": "string",
          "name": "prodName",
          "type": "string"
        },
        {
          "indexed": false,
          "internalType": "string",
          "name": "prodInfo",
          "type": "string"
        },
        {
          "indexed": false,
          "internalType": "address",
          "name": "prodProducer",
          "type": "address"
        }
      ],
      "name": "LogAddProduct",
      "type": "event"
    },
    {
      "anonymous": false,
      "inputs": [
        {
          "indexed": false,
          "internalType": "bytes",
          "name": "data",
          "type": "bytes"
        }
      ],
      "name": "LogMsgData",
      "type": "event"
    },
    {
      "anonymous": false,
      "inputs": [
        {
          "indexed": true,
          "internalType": "address",
          "name": "previousOwner",
          "type": "address"
        },
        {
          "indexed": true,
          "internalType": "address",
          "name": "newOwner",
          "type": "address"
        }
      ],
      "name": "OwnershipTransferred",
      "type": "event"
    },
    {
      "inputs": [
        {
          "internalType": "address",
          "name": "",
          "type": "address"
        }
      ],
      "name": "attestations",
      "outputs": [
        {
          "internalType": "string",
          "name": "",
          "type": "string"
        }
      ],
      "stateMutability": "view",
      "type": "function",
      "constant": true
    },
    {
      "inputs": [
        {
          "internalType": "address",
          "name": "",
          "type": "address"
        }
      ],
      "name": "isProductOwners",
      "outputs": [
        {
          "internalType": "string",
          "name": "",
          "type": "string"
        }
      ],
      "stateMutability": "view",
      "type": "function",
      "constant": true
    },
    {
      "inputs": [
        {
          "internalType": "address",
          "name": "",
          "type": "address"
        }
      ],
      "name": "isSCadmins",
      "outputs": [
        {
          "internalType": "bool",
          "name": "",
          "type": "bool"
        }
      ],
      "stateMutability": "view",
      "type": "function",
      "constant": true
    },
    {
      "inputs": [],
      "name": "owner",
      "outputs": [
        {
          "internalType": "address",
          "name": "",
          "type": "address"
        }
      ],
      "stateMutability": "view",
      "type": "function",
      "constant": true
    },
    {
      "inputs": [],
      "name": "productIdCounter",
      "outputs": [
        {
          "internalType": "uint256",
          "name": "",
          "type": "uint256"
        }
      ],
      "stateMutability": "view",
      "type": "function",
      "constant": true
    },
    {
      "inputs": [
        {
          "internalType": "uint256",
          "name": "",
          "type": "uint256"
        }
      ],
      "name": "products",
      "outputs": [
        {
          "internalType": "uint256",
          "name": "productId",
          "type": "uint256"
        },
        {
          "internalType": "string",
          "name": "productName",
          "type": "string"
        },
        {
          "internalType": "string",
          "name": "productInfo",
          "type": "string"
        },
        {
          "internalType": "address payable",
          "name": "productProducer",
          "type": "address"
        }
      ],
      "stateMutability": "view",
      "type": "function",
      "constant": true
    },
    {
      "inputs": [],
      "name": "renounceOwnership",
      "outputs": [],
      "stateMutability": "nonpayable",
      "type": "function"
    },
    {
      "inputs": [],
      "name": "scAdmin",
      "outputs": [
        {
          "internalType": "address",
          "name": "",
          "type": "address"
        }
      ],
      "stateMutability": "view",
      "type": "function",
      "constant": true
    },
    {
      "inputs": [
        {
          "internalType": "address",
          "name": "newOwner",
          "type": "address"
        }
      ],
      "name": "transferOwnership",
      "outputs": [],
      "stateMutability": "nonpayable",
      "type": "function"
    },
    {
      "stateMutability": "payable",
      "type": "receive",
      "payable": true
    },
    {
      "inputs": [],
      "name": "kill",
      "outputs": [],
      "stateMutability": "nonpayable",
      "type": "function"
    },
    {
      "inputs": [
        {
          "internalType": "string",
          "name": "prodName",
          "type": "string"
        },
        {
          "internalType": "string",
          "name": "prodInfo",
          "type": "string"
        }
      ],
      "name": "addProduct",
      "outputs": [],
      "stateMutability": "nonpayable",
      "type": "function"
    },
    {
      "inputs": [
        {
          "internalType": "uint256",
          "name": "_prodId",
          "type": "uint256"
        }
      ],
      "name": "getProductById",
      "outputs": [
        {
          "internalType": "uint256",
          "name": "",
          "type": "uint256"
        },
        {
          "internalType": "string",
          "name": "",
          "type": "string"
        },
        {
          "internalType": "string",
          "name": "",
          "type": "string"
        },
        {
          "internalType": "address",
          "name": "",
          "type": "address"
        }
      ],
      "stateMutability": "view",
      "type": "function",
      "constant": true
    },
    {
      "inputs": [
        {
          "internalType": "string",
          "name": "hash",
          "type": "string"
        }
      ],
      "name": "attest",
      "outputs": [],
      "stateMutability": "nonpayable",
      "type": "function"
    }
  ],
  "bytecode": "0x608060405260006001553480156200001657600080fd5b50600062000029620001cc60201b60201c565b9050806000806101000a81548173ffffffffffffffffffffffffffffffffffffffff021916908373ffffffffffffffffffffffffffffffffffffffff1602179055508073ffffffffffffffffffffffffffffffffffffffff16600073ffffffffffffffffffffffffffffffffffffffff167f8be0079c531659141344cd1fd0a4f28419497f9722a3daafe3b4186f6b6457e060405160405180910390a350620000d7620001d460201b60201c565b600260006101000a81548173ffffffffffffffffffffffffffffffffffffffff021916908373ffffffffffffffffffffffffffffffffffffffff1602179055506200014a600260009054906101000a900473ffffffffffffffffffffffffffffffffffffffff16620001fd60201b60201c565b620001c66040518060400160405280600d81526020017f50726f6475637473204e616d65000000000000000000000000000000000000008152506040518060400160405280600f81526020017f4578616d706c652070726f6475637400000000000000000000000000000000008152506200032a60201b60201c565b620006ef565b600033905090565b60008060009054906101000a900473ffffffffffffffffffffffffffffffffffffffff16905090565b6200020d620001cc60201b60201c565b73ffffffffffffffffffffffffffffffffffffffff166000809054906101000a900473ffffffffffffffffffffffffffffffffffffffff1673ffffffffffffffffffffffffffffffffffffffff1614620002cf576040517f08c379a00000000000000000000000000000000000000000000000000000000081526004018080602001828103825260208152602001807f4f776e61626c653a2063616c6c6572206973206e6f7420746865206f776e657281525060200191505060405180910390fd5b6001600360008373ffffffffffffffffffffffffffffffffffffffff1673ffffffffffffffffffffffffffffffffffffffff16815260200190815260200160002060006101000a81548160ff02191690831515021790555050565b6200033a620001cc60201b60201c565b600360008273ffffffffffffffffffffffffffffffffffffffff1673ffffffffffffffffffffffffffffffffffffffff16815260200190815260200160002060009054906101000a900460ff16620003de576040517f08c379a0000000000000000000000000000000000000000000000000000000008152600401808060200182810382526027815260200180620020db6027913960400191505060405180910390fd5b600160008154809291906001019190505550604051806080016040528060015481526020018481526020018381526020016200041f620001cc60201b60201c565b73ffffffffffffffffffffffffffffffffffffffff168152506006600060015481526020019081526020016000206000820151816000015560208201518160010190805190602001906200047592919062000640565b5060408201518160020190805190602001906200049492919062000640565b5060608201518160030160006101000a81548173ffffffffffffffffffffffffffffffffffffffff021916908373ffffffffffffffffffffffffffffffffffffffff1602179055509050507f052bb86a22f89d2b6493d6ac600744afa4f6c297a040d4f6521622554fd557a0600154848462000515620001cc60201b60201c565b6040518085815260200180602001806020018473ffffffffffffffffffffffffffffffffffffffff1673ffffffffffffffffffffffffffffffffffffffff168152602001838103835286818151815260200191508051906020019080838360005b838110156200059357808201518184015260208101905062000576565b50505050905090810190601f168015620005c15780820380516001836020036101000a031916815260200191505b50838103825285818151815260200191508051906020019080838360005b83811015620005fc578082015181840152602081019050620005df565b50505050905090810190601f1680156200062a5780820380516001836020036101000a031916815260200191505b50965050505050505060405180910390a1505050565b828054600181600116156101000203166002900490600052602060002090601f016020900481019282601f106200068357805160ff1916838001178555620006b4565b82800160010185558215620006b4579182015b82811115620006b357825182559160200191906001019062000696565b5b509050620006c39190620006c7565b5090565b620006ec91905b80821115620006e8576000816000905550600101620006ce565b5090565b90565b6119dc80620006ff6000396000f3fe6080604052600436106100c65760003560e01c806347688f6f1161007f5780638da5cb5b116100595780638da5cb5b146106d4578063ca2efb551461072b578063f2fde38b1461088a578063fd15b11d146108db57610170565b806347688f6f1461050c578063715018a6146105635780637acc0b201461057a57610170565b806306431afe14610175578063203570481461023d5780632af1ff0d14610307578063342ae8c6146103705780633f70c2b41461039b57806341c0e1b5146104f557610170565b36610170577f84a7e86a5530dbab0d699a72cd56748c29585a63e9b2b8281b9acdf52e9d161e6100f46109a5565b6040518080602001828103825283818151815260200191508051906020019080838360005b83811015610134578082015181840152602081019050610119565b50505050905090810190601f1680156101615780820380516001836020036101000a031916815260200191505b509250505060405180910390a1005b600080fd5b34801561018157600080fd5b5061023b6004803603602081101561019857600080fd5b81019080803590602001906401000000008111156101b557600080fd5b8201836020820111156101c757600080fd5b803590602001918460018302840111640100000000831117156101e957600080fd5b91908080601f016020809104026020016040519081016040528093929190818152602001838380828437600081840152601f19601f8201169050808301925050505050505091929192905050506109f2565b005b34801561024957600080fd5b5061028c6004803603602081101561026057600080fd5b81019080803573ffffffffffffffffffffffffffffffffffffffff169060200190929190505050610b19565b6040518080602001828103825283818151815260200191508051906020019080838360005b838110156102cc5780820151818401526020810190506102b1565b50505050905090810190601f1680156102f95780820380516001836020036101000a031916815260200191505b509250505060405180910390f35b34801561031357600080fd5b506103566004803603602081101561032a57600080fd5b81019080803573ffffffffffffffffffffffffffffffffffffffff169060200190929190505050610bc9565b604051808215151515815260200191505060405180910390f35b34801561037c57600080fd5b50610385610be9565b6040518082815260200191505060405180910390f35b3480156103a757600080fd5b506103d4600480360360208110156103be57600080fd5b8101908080359060200190929190505050610bef565b6040518085815260200180602001806020018473ffffffffffffffffffffffffffffffffffffffff1673ffffffffffffffffffffffffffffffffffffffff168152602001838103835286818151815260200191508051906020019080838360005b83811015610450578082015181840152602081019050610435565b50505050905090810190601f16801561047d5780820380516001836020036101000a031916815260200191505b50838103825285818151815260200191508051906020019080838360005b838110156104b657808201518184015260208101905061049b565b50505050905090810190601f1680156104e35780820380516001836020036101000a031916815260200191505b50965050505050505060405180910390f35b34801561050157600080fd5b5061050a610e3d565b005b34801561051857600080fd5b50610521610f26565b604051808273ffffffffffffffffffffffffffffffffffffffff1673ffffffffffffffffffffffffffffffffffffffff16815260200191505060405180910390f35b34801561056f57600080fd5b50610578610f4c565b005b34801561058657600080fd5b506105b36004803603602081101561059d57600080fd5b81019080803590602001909291905050506110d4565b6040518085815260200180602001806020018473ffffffffffffffffffffffffffffffffffffffff1673ffffffffffffffffffffffffffffffffffffffff168152602001838103835286818151815260200191508051906020019080838360005b8381101561062f578082015181840152602081019050610614565b50505050905090810190601f16801561065c5780820380516001836020036101000a031916815260200191505b50838103825285818151815260200191508051906020019080838360005b8381101561069557808201518184015260208101905061067a565b50505050905090810190601f1680156106c25780820380516001836020036101000a031916815260200191505b50965050505050505060405180910390f35b3480156106e057600080fd5b506106e9611254565b604051808273ffffffffffffffffffffffffffffffffffffffff1673ffffffffffffffffffffffffffffffffffffffff16815260200191505060405180910390f35b34801561073757600080fd5b506108886004803603604081101561074e57600080fd5b810190808035906020019064010000000081111561076b57600080fd5b82018360208201111561077d57600080fd5b8035906020019184600183028401116401000000008311171561079f57600080fd5b91908080601f016020809104026020016040519081016040528093929190818152602001838380828437600081840152601f19601f8201169050808301925050505050505091929192908035906020019064010000000081111561080257600080fd5b82018360208201111561081457600080fd5b8035906020019184600183028401116401000000008311171561083657600080fd5b91908080601f016020809104026020016040519081016040528093929190818152602001838380828437600081840152601f19601f82011690508083019250505050505050919291929050505061127d565b005b34801561089657600080fd5b506108d9600480360360208110156108ad57600080fd5b81019080803573ffffffffffffffffffffffffffffffffffffffff16906020019092919050505061156f565b005b3480156108e757600080fd5b5061092a600480360360208110156108fe57600080fd5b81019080803573ffffffffffffffffffffffffffffffffffffffff16906020019092919050505061177c565b6040518080602001828103825283818151815260200191508051906020019080838360005b8381101561096a57808201518184015260208101905061094f565b50505050905090810190601f1680156109975780820380516001836020036101000a031916815260200191505b509250505060405180910390f35b60606000368080601f016020809104026020016040519081016040528093929190818152602001838380828437600081840152601f19601f82011690508083019250505050505050905090565b7f3bcc68f1dca369aa1b98ef559db7b5f17c6b9bcd4a0c36554271ee5be7a9f18c3382604051808373ffffffffffffffffffffffffffffffffffffffff1673ffffffffffffffffffffffffffffffffffffffff16815260200180602001828103825283818151815260200191508051906020019080838360005b83811015610a87578082015181840152602081019050610a6c565b50505050905090810190601f168015610ab45780820380516001836020036101000a031916815260200191505b50935050505060405180910390a180600560003373ffffffffffffffffffffffffffffffffffffffff1673ffffffffffffffffffffffffffffffffffffffff1681526020019081526020016000209080519060200190610b15929190611834565b5050565b60056020528060005260406000206000915090508054600181600116156101000203166002900480601f016020809104026020016040519081016040528092919081815260200182805460018160011615610100020316600290048015610bc15780601f10610b9657610100808354040283529160200191610bc1565b820191906000526020600020905b815481529060010190602001808311610ba457829003601f168201915b505050505081565b60036020528060005260406000206000915054906101000a900460ff1681565b60015481565b600060608060008085118015610c0757506001548511155b610c79576040517f08c379a000000000000000000000000000000000000000000000000000000000815260040180806020018281038252601b8152602001807f5468652070726f64756374204964206973206e6f74207661696c64000000000081525060200191505060405180910390fd5b600660008681526020019081526020016000206000015460066000878152602001908152602001600020600101600660008881526020019081526020016000206002016006600089815260200190815260200160002060030160009054906101000a900473ffffffffffffffffffffffffffffffffffffffff16828054600181600116156101000203166002900480601f016020809104026020016040519081016040528092919081815260200182805460018160011615610100020316600290048015610d885780601f10610d5d57610100808354040283529160200191610d88565b820191906000526020600020905b815481529060010190602001808311610d6b57829003601f168201915b50505050509250818054600181600116156101000203166002900480601f016020809104026020016040519081016040528092919081815260200182805460018160011615610100020316600290048015610e245780601f10610df957610100808354040283529160200191610e24565b820191906000526020600020905b815481529060010190602001808311610e0757829003601f168201915b5050505050915080905093509350935093509193509193565b610e4561182c565b73ffffffffffffffffffffffffffffffffffffffff166000809054906101000a900473ffffffffffffffffffffffffffffffffffffffff1673ffffffffffffffffffffffffffffffffffffffff1614610f06576040517f08c379a00000000000000000000000000000000000000000000000000000000081526004018080602001828103825260208152602001807f4f776e61626c653a2063616c6c6572206973206e6f7420746865206f776e657281525060200191505060405180910390fd5b610f0e61182c565b73ffffffffffffffffffffffffffffffffffffffff16ff5b600260009054906101000a900473ffffffffffffffffffffffffffffffffffffffff1681565b610f5461182c565b73ffffffffffffffffffffffffffffffffffffffff166000809054906101000a900473ffffffffffffffffffffffffffffffffffffffff1673ffffffffffffffffffffffffffffffffffffffff1614611015576040517f08c379a00000000000000000000000000000000000000000000000000000000081526004018080602001828103825260208152602001807f4f776e61626c653a2063616c6c6572206973206e6f7420746865206f776e657281525060200191505060405180910390fd5b600073ffffffffffffffffffffffffffffffffffffffff166000809054906101000a900473ffffffffffffffffffffffffffffffffffffffff1673ffffffffffffffffffffffffffffffffffffffff167f8be0079c531659141344cd1fd0a4f28419497f9722a3daafe3b4186f6b6457e060405160405180910390a360008060006101000a81548173ffffffffffffffffffffffffffffffffffffffff021916908373ffffffffffffffffffffffffffffffffffffffff160217905550565b6006602052806000526040600020600091509050806000015490806001018054600181600116156101000203166002900480601f0160208091040260200160405190810160405280929190818152602001828054600181600116156101000203166002900480156111865780601f1061115b57610100808354040283529160200191611186565b820191906000526020600020905b81548152906001019060200180831161116957829003601f168201915b505050505090806002018054600181600116156101000203166002900480601f0160208091040260200160405190810160405280929190818152602001828054600181600116156101000203166002900480156112245780601f106111f957610100808354040283529160200191611224565b820191906000526020600020905b81548152906001019060200180831161120757829003601f168201915b5050505050908060030160009054906101000a900473ffffffffffffffffffffffffffffffffffffffff16905084565b60008060009054906101000a900473ffffffffffffffffffffffffffffffffffffffff16905090565b61128561182c565b600360008273ffffffffffffffffffffffffffffffffffffffff1673ffffffffffffffffffffffffffffffffffffffff16815260200190815260200160002060009054906101000a900460ff16611327576040517f08c379a00000000000000000000000000000000000000000000000000000000081526004018080602001828103825260278152602001806119806027913960400191505060405180910390fd5b6001600081548092919060010191905055506040518060800160405280600154815260200184815260200183815260200161136061182c565b73ffffffffffffffffffffffffffffffffffffffff168152506006600060015481526020019081526020016000206000820151816000015560208201518160010190805190602001906113b49291906118b4565b5060408201518160020190805190602001906113d19291906118b4565b5060608201518160030160006101000a81548173ffffffffffffffffffffffffffffffffffffffff021916908373ffffffffffffffffffffffffffffffffffffffff1602179055509050507f052bb86a22f89d2b6493d6ac600744afa4f6c297a040d4f6521622554fd557a0600154848461144a61182c565b6040518085815260200180602001806020018473ffffffffffffffffffffffffffffffffffffffff1673ffffffffffffffffffffffffffffffffffffffff168152602001838103835286818151815260200191508051906020019080838360005b838110156114c65780820151818401526020810190506114ab565b50505050905090810190601f1680156114f35780820380516001836020036101000a031916815260200191505b50838103825285818151815260200191508051906020019080838360005b8381101561152c578082015181840152602081019050611511565b50505050905090810190601f1680156115595780820380516001836020036101000a031916815260200191505b50965050505050505060405180910390a1505050565b61157761182c565b73ffffffffffffffffffffffffffffffffffffffff166000809054906101000a900473ffffffffffffffffffffffffffffffffffffffff1673ffffffffffffffffffffffffffffffffffffffff1614611638576040517f08c379a00000000000000000000000000000000000000000000000000000000081526004018080602001828103825260208152602001807f4f776e61626c653a2063616c6c6572206973206e6f7420746865206f776e657281525060200191505060405180910390fd5b600073ffffffffffffffffffffffffffffffffffffffff168173ffffffffffffffffffffffffffffffffffffffff1614156116be576040517f08c379a000000000000000000000000000000000000000000000000000000000815260040180806020018281038252602681526020018061195a6026913960400191505060405180910390fd5b8073ffffffffffffffffffffffffffffffffffffffff166000809054906101000a900473ffffffffffffffffffffffffffffffffffffffff1673ffffffffffffffffffffffffffffffffffffffff167f8be0079c531659141344cd1fd0a4f28419497f9722a3daafe3b4186f6b6457e060405160405180910390a3806000806101000a81548173ffffffffffffffffffffffffffffffffffffffff021916908373ffffffffffffffffffffffffffffffffffffffff16021790555050565b60046020528060005260406000206000915090508054600181600116156101000203166002900480601f0160208091040260200160405190810160405280929190818152602001828054600181600116156101000203166002900480156118245780601f106117f957610100808354040283529160200191611824565b820191906000526020600020905b81548152906001019060200180831161180757829003601f168201915b505050505081565b600033905090565b828054600181600116156101000203166002900490600052602060002090601f016020900481019282601f1061187557805160ff19168380011785556118a3565b828001600101855582156118a3579182015b828111156118a2578251825591602001919060010190611887565b5b5090506118b09190611934565b5090565b828054600181600116156101000203166002900490600052602060002090601f016020900481019282601f106118f557805160ff1916838001178555611923565b82800160010185558215611923579182015b82811115611922578251825591602001919060010190611907565b5b5090506119309190611934565b5090565b61195691905b8082111561195257600081600090555060010161193a565b5090565b9056fe4f776e61626c653a206e6577206f776e657220697320746865207a65726f20616464726573734d75737420626520616e2061646d696e20746f2063616c6c20746869732066756e6374696f6e2ea264697066735822122049d1ccd6776756e059c5988bd0524770ad53f71db575beceb599a304bdee5dc464736f6c634300060000334d75737420626520616e2061646d696e20746f2063616c6c20746869732066756e6374696f6e2e",
  "source": "// SPDX-License-Identifier: UNLICENSED\npragma solidity >=0.6.0 <0.8.0;\n\n/// @title SupplyChain\n/// @author HackFS Supply Chain\n/// @notice Implements Decentralized Supply Chain\n\n\nimport \"./Ownable.sol\";\n\ncontract SChainDapp is Ownable {\n\n    /// @dev store the product count/id (public for getter())\n    uint public productIdCounter = 0;\n\n    address public scAdmin;\n    mapping(address => bool) public isSCadmins;\n    mapping(address => string) public isProductOwners;\n\n    mapping (address => string) public attestations;\n\n    /// @notice A Product:\n    /// @param Product Id: @productId\n    /// @param Product Name: @productName\n    /// @param Product Info: @productInfo\n    /// @param Product Producer: @productProducer\n    struct Product {\n        uint productId;\n        string productName;\n        string productInfo;\n        address payable productProducer;\n    }\n \n    mapping (uint => Product) public products;\n\n    /// @notice LogMsgData should provide the MsgData\n    event LogMsgData(\n        bytes data\n    );\n\n    /// @notice LogAddProduct should provide info about the product\n    /// @param prodId the product id\n    /// @param prodName the product name\n    /// @param prodInfo the product info\n    /// @param prodProducer the product producer\n    event LogAddProduct(\n        uint prodId,\n        string prodName,\n        string prodInfo,\n        address prodProducer\n    );\n\n    /// @notice Create a modifier that throws an error if the address !isAdmin\n    /// @param _isAdmin the new admin\n    modifier onlyAdmin(address _isAdmin) {\n        require(\n            isSCadmins[_isAdmin],\n            \"Must be an admin to call this function.\"\n        );\n        _;\n    }\n\n    /// @notice Calling the Ownable constructor to insure that the address deploying this contract is \n    /// regsitered as owner and to set owner as an admin\n    constructor() \n        public\n        Ownable()\n    {\n        scAdmin = owner();      \n        addAdmin(scAdmin);\n        addProduct(\"Products Name\", \"Example product\");\n    }\n\n    /// @notice Payable fallback\n    receive() external payable {\n        emit LogMsgData(_msgData());\n    }\n\n    /// @notice kill the smart contract\n    function kill() public onlyOwner {\n        selfdestruct(_msgSender());\n    }\n    \n    /// @notice This function adds an MPadmin\n    /// @param _newAdmin the new admin\n    function addAdmin(address _newAdmin)\n        internal\n        virtual\n        onlyOwner\n    {  \n        isSCadmins[_newAdmin] = true;\n    }\n\n    /// @notice This function adds a Product\n    /// @dev The productId is derived from the counter\n    /// @param prodInfo Any product info\n    function addProduct(\n        string memory prodName,\n        string memory prodInfo\n    )\n        public\n        onlyAdmin(_msgSender())\n    {\n        productIdCounter++;\n\n        /// @notice update via productId\n        products[productIdCounter] = Product(\n            productIdCounter,\n            prodName,\n            prodInfo,\n            _msgSender()\n        );\n\n        emit LogAddProduct(productIdCounter, prodName, prodInfo, _msgSender()); \n    }\n\n    /// @notice Returns Product\n    /// @return product's id\n    /// @return product's name\n    /// @return product's info\n    /// @return product's producer\n    function getProductById(uint _prodId)\n        public\n        view\n        returns (\n            uint,\n            string memory,\n            string memory,\n            address \n        )\n    {\n          require(\n              _prodId > 0 && _prodId <= productIdCounter,\n              \"The product Id is not vaild\"\n          );\n\n          return (\n              products[_prodId].productId,\n              products[_prodId].productName,\n              products[_prodId].productInfo,\n              products[_prodId].productProducer\n        );\n    }\n\n    function attest(string memory hash) public {\n       // console.log(msg.sender,\"attests to\",hash);\n       emit Attest(msg.sender,hash);\n       attestations[msg.sender] = hash;\n    }\n  \n    event Attest(address sender, string hash);\n\n}\n",
  "sourcePath": "/Users/kokom/DEV/HackFS/hkfsschain/contracts/SChainDapp.sol",
  "compiler": {
    "name": "solc",
    "version": "0.6.0+commit.26b70077.Emscripten.clang"
  },
  "schemaVersion": "3.2.3",
  "updatedAt": "2020-08-14T09:03:12.781Z",
  "networkType": "ethereum",
  "devdoc": {
    "methods": {
      "addProduct(string,string)": {
        "details": "The productId is derived from the counter",
        "params": {
          "prodInfo": "Any product info"
        }
      },
      "owner()": {
        "details": "Returns the address of the current owner."
      },
      "renounceOwnership()": {
        "details": "Leaves the contract without owner. It will not be possible to call `onlyOwner` functions anymore. Can only be called by the current owner.     * NOTE: Renouncing ownership will leave the contract without an owner, thereby removing any functionality that is only available to the owner."
      },
      "transferOwnership(address)": {
        "details": "Transfers ownership of the contract to a new account (`newOwner`). Can only be called by the current owner."
      }
    }
  },
  "userdoc": {
    "methods": {
      "addProduct(string,string)": {
        "notice": "This function adds a Product"
      },
      "constructor": "Calling the Ownable constructor to insure that the address deploying this contract is  regsitered as owner and to set owner as an admin",
      "getProductById(uint256)": {
        "notice": "Returns Product"
      },
      "kill()": {
        "notice": "kill the smart contract"
      }
    }
  }
}