{
  "contractName": "SChainDapp",
  "abi": [
    {
      "inputs": [],
      "stateMutability": "nonpayable",
      "type": "constructor"
    },
    {
      "anonymous": false,
      "inputs": [
        {
          "indexed": false,
          "internalType": "address",
          "name": "sender",
          "type": "address"
        },
        {
          "indexed": false,
          "internalType": "string",
          "name": "hash",
          "type": "string"
        }
      ],
      "name": "Attest",
      "type": "event"
    },
    {
      "anonymous": false,
      "inputs": [
        {
          "indexed": false,
          "internalType": "uint256",
          "name": "prodId",
          "type": "uint256"
        },
        {
          "indexed": false,
          "internalType": "string",
          "name": "prodName",
          "type": "string"
        },
        {
          "indexed": false,
          "internalType": "string",
          "name": "prodInfo",
          "type": "string"
        },
        {
          "indexed": false,
          "internalType": "uint256",
          "name": "prodValue",
          "type": "uint256"
        },
        {
          "indexed": false,
          "internalType": "string",
          "name": "prodGpgga",
          "type": "string"
        },
        {
          "indexed": false,
          "internalType": "string",
          "name": "prodDest",
          "type": "string"
        },
        {
          "indexed": false,
          "internalType": "address",
          "name": "prodProducer",
          "type": "address"
        },
        {
          "indexed": false,
          "internalType": "address",
          "name": "prodDistributor",
          "type": "address"
        },
        {
          "indexed": false,
          "internalType": "address",
          "name": "prodRetailer",
          "type": "address"
        },
        {
          "indexed": false,
          "internalType": "address",
          "name": "prodConsumer",
          "type": "address"
        }
      ],
      "name": "LogAddProduct",
      "type": "event"
    },
    {
      "anonymous": false,
      "inputs": [
        {
          "indexed": false,
          "internalType": "bytes",
          "name": "data",
          "type": "bytes"
        }
      ],
      "name": "LogMsgData",
      "type": "event"
    },
    {
      "anonymous": false,
      "inputs": [
        {
          "indexed": true,
          "internalType": "address",
          "name": "previousOwner",
          "type": "address"
        },
        {
          "indexed": true,
          "internalType": "address",
          "name": "newOwner",
          "type": "address"
        }
      ],
      "name": "OwnershipTransferred",
      "type": "event"
    },
    {
      "inputs": [
        {
          "internalType": "address",
          "name": "",
          "type": "address"
        }
      ],
      "name": "attestations",
      "outputs": [
        {
          "internalType": "string",
          "name": "",
          "type": "string"
        }
      ],
      "stateMutability": "view",
      "type": "function",
      "constant": true
    },
    {
      "inputs": [
        {
          "internalType": "address",
          "name": "",
          "type": "address"
        }
      ],
      "name": "isProductOwners",
      "outputs": [
        {
          "internalType": "string",
          "name": "",
          "type": "string"
        }
      ],
      "stateMutability": "view",
      "type": "function",
      "constant": true
    },
    {
      "inputs": [
        {
          "internalType": "address",
          "name": "",
          "type": "address"
        }
      ],
      "name": "isSCadmins",
      "outputs": [
        {
          "internalType": "bool",
          "name": "",
          "type": "bool"
        }
      ],
      "stateMutability": "view",
      "type": "function",
      "constant": true
    },
    {
      "inputs": [],
      "name": "owner",
      "outputs": [
        {
          "internalType": "address",
          "name": "",
          "type": "address"
        }
      ],
      "stateMutability": "view",
      "type": "function",
      "constant": true
    },
    {
      "inputs": [],
      "name": "productIdCounter",
      "outputs": [
        {
          "internalType": "uint256",
          "name": "",
          "type": "uint256"
        }
      ],
      "stateMutability": "view",
      "type": "function",
      "constant": true
    },
    {
      "inputs": [
        {
          "internalType": "uint256",
          "name": "",
          "type": "uint256"
        }
      ],
      "name": "products",
      "outputs": [
        {
          "internalType": "uint256",
          "name": "productId",
          "type": "uint256"
        },
        {
          "internalType": "string",
          "name": "productName",
          "type": "string"
        },
        {
          "internalType": "string",
          "name": "productInfo",
          "type": "string"
        },
        {
          "internalType": "uint256",
          "name": "productValue",
          "type": "uint256"
        },
        {
          "internalType": "string",
          "name": "productGpgga",
          "type": "string"
        },
        {
          "internalType": "string",
          "name": "productDest",
          "type": "string"
        },
        {
          "internalType": "address payable",
          "name": "productProducer",
          "type": "address"
        },
        {
          "internalType": "address payable",
          "name": "productDistributor",
          "type": "address"
        },
        {
          "internalType": "address payable",
          "name": "productRetailer",
          "type": "address"
        },
        {
          "internalType": "address",
          "name": "productConsumer",
          "type": "address"
        }
      ],
      "stateMutability": "view",
      "type": "function",
      "constant": true
    },
    {
      "inputs": [],
      "name": "renounceOwnership",
      "outputs": [],
      "stateMutability": "nonpayable",
      "type": "function"
    },
    {
      "inputs": [],
      "name": "scAdmin",
      "outputs": [
        {
          "internalType": "address",
          "name": "",
          "type": "address"
        }
      ],
      "stateMutability": "view",
      "type": "function",
      "constant": true
    },
    {
      "inputs": [
        {
          "internalType": "address",
          "name": "newOwner",
          "type": "address"
        }
      ],
      "name": "transferOwnership",
      "outputs": [],
      "stateMutability": "nonpayable",
      "type": "function"
    },
    {
      "stateMutability": "payable",
      "type": "receive",
      "payable": true
    },
    {
      "inputs": [],
      "name": "kill",
      "outputs": [],
      "stateMutability": "nonpayable",
      "type": "function"
    },
    {
      "inputs": [
        {
          "internalType": "string",
          "name": "prodName",
          "type": "string"
        },
        {
          "internalType": "string",
          "name": "prodInfo",
          "type": "string"
        },
        {
          "internalType": "uint256",
          "name": "prodValue",
          "type": "uint256"
        },
        {
          "internalType": "string",
          "name": "prodGpgga",
          "type": "string"
        },
        {
          "internalType": "string",
          "name": "prodDest",
          "type": "string"
        }
      ],
      "name": "addProduct",
      "outputs": [],
      "stateMutability": "nonpayable",
      "type": "function"
    },
    {
      "inputs": [
        {
          "internalType": "uint256",
          "name": "_prodId",
          "type": "uint256"
        }
      ],
      "name": "getProductById",
      "outputs": [
        {
          "internalType": "uint256",
          "name": "",
          "type": "uint256"
        },
        {
          "internalType": "string",
          "name": "",
          "type": "string"
        },
        {
          "internalType": "string",
          "name": "",
          "type": "string"
        },
        {
          "internalType": "uint256",
          "name": "",
          "type": "uint256"
        },
        {
          "internalType": "string",
          "name": "",
          "type": "string"
        },
        {
          "internalType": "string",
          "name": "",
          "type": "string"
        }
      ],
      "stateMutability": "view",
      "type": "function",
      "constant": true
    },
    {
      "inputs": [
        {
          "internalType": "string",
          "name": "hash",
          "type": "string"
        }
      ],
      "name": "attest",
      "outputs": [],
      "stateMutability": "nonpayable",
      "type": "function"
    }
  ],
  "bytecode": "0x608060405260006001553480156200001657600080fd5b506000620000296200023a60201b60201c565b9050806000806101000a81548173ffffffffffffffffffffffffffffffffffffffff021916908373ffffffffffffffffffffffffffffffffffffffff1602179055508073ffffffffffffffffffffffffffffffffffffffff16600073ffffffffffffffffffffffffffffffffffffffff167f8be0079c531659141344cd1fd0a4f28419497f9722a3daafe3b4186f6b6457e060405160405180910390a350620000d76200024260201b60201c565b600260006101000a81548173ffffffffffffffffffffffffffffffffffffffff021916908373ffffffffffffffffffffffffffffffffffffffff1602179055506200014a600260009054906101000a900473ffffffffffffffffffffffffffffffffffffffff166200026b60201b60201c565b620002346040518060400160405280600c81526020017f4578616d706c65204e616d6500000000000000000000000000000000000000008152506040518060400160405280600c81526020017f4578616d706c6520496e666f000000000000000000000000000000000000000081525060016040518060400160405280600881526020017f3030304e305730300000000000000000000000000000000000000000000000008152506040518060400160405280600281526020017f4e590000000000000000000000000000000000000000000000000000000000008152506200039860201b60201c565b62000a6f565b600033905090565b60008060009054906101000a900473ffffffffffffffffffffffffffffffffffffffff16905090565b6200027b6200023a60201b60201c565b73ffffffffffffffffffffffffffffffffffffffff166000809054906101000a900473ffffffffffffffffffffffffffffffffffffffff1673ffffffffffffffffffffffffffffffffffffffff16146200033d576040517f08c379a00000000000000000000000000000000000000000000000000000000081526004018080602001828103825260208152602001807f4f776e61626c653a2063616c6c6572206973206e6f7420746865206f776e657281525060200191505060405180910390fd5b6001600360008373ffffffffffffffffffffffffffffffffffffffff1673ffffffffffffffffffffffffffffffffffffffff16815260200190815260200160002060006101000a81548160ff02191690831515021790555050565b620003a86200023a60201b60201c565b600360008273ffffffffffffffffffffffffffffffffffffffff1673ffffffffffffffffffffffffffffffffffffffff16815260200190815260200160002060009054906101000a900460ff166200044c576040517f08c379a000000000000000000000000000000000000000000000000000000000815260040180806020018281038252602781526020018062002dbe6027913960400191505060405180910390fd5b6001600081548092919060010191905055506040518061014001604052806001548152602001878152602001868152602001858152602001848152602001838152602001620004a06200023a60201b60201c565b73ffffffffffffffffffffffffffffffffffffffff168152602001600073ffffffffffffffffffffffffffffffffffffffff168152602001600073ffffffffffffffffffffffffffffffffffffffff168152602001600073ffffffffffffffffffffffffffffffffffffffff168152506006600060015481526020019081526020016000206000820151816000015560208201518160010190805190602001906200054d929190620009c0565b5060408201518160020190805190602001906200056c929190620009c0565b5060608201518160030155608082015181600401908051906020019062000595929190620009c0565b5060a0820151816005019080519060200190620005b4929190620009c0565b5060c08201518160060160006101000a81548173ffffffffffffffffffffffffffffffffffffffff021916908373ffffffffffffffffffffffffffffffffffffffff16021790555060e08201518160070160006101000a81548173ffffffffffffffffffffffffffffffffffffffff021916908373ffffffffffffffffffffffffffffffffffffffff1602179055506101008201518160080160006101000a81548173ffffffffffffffffffffffffffffffffffffffff021916908373ffffffffffffffffffffffffffffffffffffffff1602179055506101208201518160090160006101000a81548173ffffffffffffffffffffffffffffffffffffffff021916908373ffffffffffffffffffffffffffffffffffffffff1602179055509050507fa3e409b9b5cab1446094f9715d5ae0c95ffe326757dfda4f2ccbe2217700985160015487878787876200070f6200023a60201b60201c565b6000806000604051808b815260200180602001806020018a815260200180602001806020018973ffffffffffffffffffffffffffffffffffffffff1673ffffffffffffffffffffffffffffffffffffffff1681526020018873ffffffffffffffffffffffffffffffffffffffff1673ffffffffffffffffffffffffffffffffffffffff1681526020018773ffffffffffffffffffffffffffffffffffffffff1673ffffffffffffffffffffffffffffffffffffffff1681526020018673ffffffffffffffffffffffffffffffffffffffff1673ffffffffffffffffffffffffffffffffffffffff16815260200185810385528e818151815260200191508051906020019080838360005b838110156200083657808201518184015260208101905062000819565b50505050905090810190601f168015620008645780820380516001836020036101000a031916815260200191505b5085810384528d818151815260200191508051906020019080838360005b838110156200089f57808201518184015260208101905062000882565b50505050905090810190601f168015620008cd5780820380516001836020036101000a031916815260200191505b5085810383528b818151815260200191508051906020019080838360005b8381101562000908578082015181840152602081019050620008eb565b50505050905090810190601f168015620009365780820380516001836020036101000a031916815260200191505b5085810382528a818151815260200191508051906020019080838360005b838110156200097157808201518184015260208101905062000954565b50505050905090810190601f1680156200099f5780820380516001836020036101000a031916815260200191505b509e50505050505050505050505050505060405180910390a1505050505050565b828054600181600116156101000203166002900490600052602060002090601f016020900481019282601f1062000a0357805160ff191683800117855562000a34565b8280016001018555821562000a34579182015b8281111562000a3357825182559160200191906001019062000a16565b5b50905062000a43919062000a47565b5090565b62000a6c91905b8082111562000a6857600081600090555060010162000a4e565b5090565b90565b61233f8062000a7f6000396000f3fe6080604052600436106100c65760003560e01c806341c0e1b51161007f5780637acc0b20116100595780637acc0b20146108bd5780638da5cb5b14610b8f578063f2fde38b14610be6578063fd15b11d14610c3757610170565b806341c0e1b51461083857806347688f6f1461084f578063715018a6146108a657610170565b806306431afe146101755780631337638a1461023d57806320357048146104d45780632af1ff0d1461059e578063342ae8c6146106075780633f70c2b41461063257610170565b36610170577f84a7e86a5530dbab0d699a72cd56748c29585a63e9b2b8281b9acdf52e9d161e6100f4610d01565b6040518080602001828103825283818151815260200191508051906020019080838360005b83811015610134578082015181840152602081019050610119565b50505050905090810190601f1680156101615780820380516001836020036101000a031916815260200191505b509250505060405180910390a1005b600080fd5b34801561018157600080fd5b5061023b6004803603602081101561019857600080fd5b81019080803590602001906401000000008111156101b557600080fd5b8201836020820111156101c757600080fd5b803590602001918460018302840111640100000000831117156101e957600080fd5b91908080601f016020809104026020016040519081016040528093929190818152602001838380828437600081840152601f19601f820116905080830192505050505050509192919290505050610d4e565b005b34801561024957600080fd5b506104d2600480360360a081101561026057600080fd5b810190808035906020019064010000000081111561027d57600080fd5b82018360208201111561028f57600080fd5b803590602001918460018302840111640100000000831117156102b157600080fd5b91908080601f016020809104026020016040519081016040528093929190818152602001838380828437600081840152601f19601f8201169050808301925050505050505091929192908035906020019064010000000081111561031457600080fd5b82018360208201111561032657600080fd5b8035906020019184600183028401116401000000008311171561034857600080fd5b91908080601f016020809104026020016040519081016040528093929190818152602001838380828437600081840152601f19601f82011690508083019250505050505050919291929080359060200190929190803590602001906401000000008111156103b557600080fd5b8201836020820111156103c757600080fd5b803590602001918460018302840111640100000000831117156103e957600080fd5b91908080601f016020809104026020016040519081016040528093929190818152602001838380828437600081840152601f19601f8201169050808301925050505050505091929192908035906020019064010000000081111561044c57600080fd5b82018360208201111561045e57600080fd5b8035906020019184600183028401116401000000008311171561048057600080fd5b91908080601f016020809104026020016040519081016040528093929190818152602001838380828437600081840152601f19601f820116905080830192505050505050509192919290505050610e75565b005b3480156104e057600080fd5b50610523600480360360208110156104f757600080fd5b81019080803573ffffffffffffffffffffffffffffffffffffffff16906020019092919050505061146f565b6040518080602001828103825283818151815260200191508051906020019080838360005b83811015610563578082015181840152602081019050610548565b50505050905090810190601f1680156105905780820380516001836020036101000a031916815260200191505b509250505060405180910390f35b3480156105aa57600080fd5b506105ed600480360360208110156105c157600080fd5b81019080803573ffffffffffffffffffffffffffffffffffffffff16906020019092919050505061151f565b604051808215151515815260200191505060405180910390f35b34801561061357600080fd5b5061061c61153f565b6040518082815260200191505060405180910390f35b34801561063e57600080fd5b5061066b6004803603602081101561065557600080fd5b8101908080359060200190929190505050611545565b604051808781526020018060200180602001868152602001806020018060200185810385528a818151815260200191508051906020019080838360005b838110156106c35780820151818401526020810190506106a8565b50505050905090810190601f1680156106f05780820380516001836020036101000a031916815260200191505b50858103845289818151815260200191508051906020019080838360005b8381101561072957808201518184015260208101905061070e565b50505050905090810190601f1680156107565780820380516001836020036101000a031916815260200191505b50858103835287818151815260200191508051906020019080838360005b8381101561078f578082015181840152602081019050610774565b50505050905090810190601f1680156107bc5780820380516001836020036101000a031916815260200191505b50858103825286818151815260200191508051906020019080838360005b838110156107f55780820151818401526020810190506107da565b50505050905090810190601f1680156108225780820380516001836020036101000a031916815260200191505b509a505050505050505050505060405180910390f35b34801561084457600080fd5b5061084d6118de565b005b34801561085b57600080fd5b506108646119c7565b604051808273ffffffffffffffffffffffffffffffffffffffff1673ffffffffffffffffffffffffffffffffffffffff16815260200191505060405180910390f35b3480156108b257600080fd5b506108bb6119ed565b005b3480156108c957600080fd5b506108f6600480360360208110156108e057600080fd5b8101908080359060200190929190505050611b75565b604051808b815260200180602001806020018a815260200180602001806020018973ffffffffffffffffffffffffffffffffffffffff1673ffffffffffffffffffffffffffffffffffffffff1681526020018873ffffffffffffffffffffffffffffffffffffffff1673ffffffffffffffffffffffffffffffffffffffff1681526020018773ffffffffffffffffffffffffffffffffffffffff1673ffffffffffffffffffffffffffffffffffffffff1681526020018673ffffffffffffffffffffffffffffffffffffffff1673ffffffffffffffffffffffffffffffffffffffff16815260200185810385528e818151815260200191508051906020019080838360005b83811015610a165780820151818401526020810190506109fb565b50505050905090810190601f168015610a435780820380516001836020036101000a031916815260200191505b5085810384528d818151815260200191508051906020019080838360005b83811015610a7c578082015181840152602081019050610a61565b50505050905090810190601f168015610aa95780820380516001836020036101000a031916815260200191505b5085810383528b818151815260200191508051906020019080838360005b83811015610ae2578082015181840152602081019050610ac7565b50505050905090810190601f168015610b0f5780820380516001836020036101000a031916815260200191505b5085810382528a818151815260200191508051906020019080838360005b83811015610b48578082015181840152602081019050610b2d565b50505050905090810190601f168015610b755780820380516001836020036101000a031916815260200191505b509e50505050505050505050505050505060405180910390f35b348015610b9b57600080fd5b50610ba4611ea9565b604051808273ffffffffffffffffffffffffffffffffffffffff1673ffffffffffffffffffffffffffffffffffffffff16815260200191505060405180910390f35b348015610bf257600080fd5b50610c3560048036036020811015610c0957600080fd5b81019080803573ffffffffffffffffffffffffffffffffffffffff169060200190929190505050611ed2565b005b348015610c4357600080fd5b50610c8660048036036020811015610c5a57600080fd5b81019080803573ffffffffffffffffffffffffffffffffffffffff1690602001909291905050506120df565b6040518080602001828103825283818151815260200191508051906020019080838360005b83811015610cc6578082015181840152602081019050610cab565b50505050905090810190601f168015610cf35780820380516001836020036101000a031916815260200191505b509250505060405180910390f35b60606000368080601f016020809104026020016040519081016040528093929190818152602001838380828437600081840152601f19601f82011690508083019250505050505050905090565b7f3bcc68f1dca369aa1b98ef559db7b5f17c6b9bcd4a0c36554271ee5be7a9f18c3382604051808373ffffffffffffffffffffffffffffffffffffffff1673ffffffffffffffffffffffffffffffffffffffff16815260200180602001828103825283818151815260200191508051906020019080838360005b83811015610de3578082015181840152602081019050610dc8565b50505050905090810190601f168015610e105780820380516001836020036101000a031916815260200191505b50935050505060405180910390a180600560003373ffffffffffffffffffffffffffffffffffffffff1673ffffffffffffffffffffffffffffffffffffffff1681526020019081526020016000209080519060200190610e71929190612197565b5050565b610e7d61218f565b600360008273ffffffffffffffffffffffffffffffffffffffff1673ffffffffffffffffffffffffffffffffffffffff16815260200190815260200160002060009054906101000a900460ff16610f1f576040517f08c379a00000000000000000000000000000000000000000000000000000000081526004018080602001828103825260278152602001806122e36027913960400191505060405180910390fd5b6001600081548092919060010191905055506040518061014001604052806001548152602001878152602001868152602001858152602001848152602001838152602001610f6b61218f565b73ffffffffffffffffffffffffffffffffffffffff168152602001600073ffffffffffffffffffffffffffffffffffffffff168152602001600073ffffffffffffffffffffffffffffffffffffffff168152602001600073ffffffffffffffffffffffffffffffffffffffff16815250600660006001548152602001908152602001600020600082015181600001556020820151816001019080519060200190611016929190612217565b506040820151816002019080519060200190611033929190612217565b5060608201518160030155608082015181600401908051906020019061105a929190612217565b5060a0820151816005019080519060200190611077929190612217565b5060c08201518160060160006101000a81548173ffffffffffffffffffffffffffffffffffffffff021916908373ffffffffffffffffffffffffffffffffffffffff16021790555060e08201518160070160006101000a81548173ffffffffffffffffffffffffffffffffffffffff021916908373ffffffffffffffffffffffffffffffffffffffff1602179055506101008201518160080160006101000a81548173ffffffffffffffffffffffffffffffffffffffff021916908373ffffffffffffffffffffffffffffffffffffffff1602179055506101208201518160090160006101000a81548173ffffffffffffffffffffffffffffffffffffffff021916908373ffffffffffffffffffffffffffffffffffffffff1602179055509050507fa3e409b9b5cab1446094f9715d5ae0c95ffe326757dfda4f2ccbe2217700985160015487878787876111ca61218f565b6000806000604051808b815260200180602001806020018a815260200180602001806020018973ffffffffffffffffffffffffffffffffffffffff1673ffffffffffffffffffffffffffffffffffffffff1681526020018873ffffffffffffffffffffffffffffffffffffffff1673ffffffffffffffffffffffffffffffffffffffff1681526020018773ffffffffffffffffffffffffffffffffffffffff1673ffffffffffffffffffffffffffffffffffffffff1681526020018673ffffffffffffffffffffffffffffffffffffffff1673ffffffffffffffffffffffffffffffffffffffff16815260200185810385528e818151815260200191508051906020019080838360005b838110156112ef5780820151818401526020810190506112d4565b50505050905090810190601f16801561131c5780820380516001836020036101000a031916815260200191505b5085810384528d818151815260200191508051906020019080838360005b8381101561135557808201518184015260208101905061133a565b50505050905090810190601f1680156113825780820380516001836020036101000a031916815260200191505b5085810383528b818151815260200191508051906020019080838360005b838110156113bb5780820151818401526020810190506113a0565b50505050905090810190601f1680156113e85780820380516001836020036101000a031916815260200191505b5085810382528a818151815260200191508051906020019080838360005b83811015611421578082015181840152602081019050611406565b50505050905090810190601f16801561144e5780820380516001836020036101000a031916815260200191505b509e50505050505050505050505050505060405180910390a1505050505050565b60056020528060005260406000206000915090508054600181600116156101000203166002900480601f0160208091040260200160405190810160405280929190818152602001828054600181600116156101000203166002900480156115175780601f106114ec57610100808354040283529160200191611517565b820191906000526020600020905b8154815290600101906020018083116114fa57829003601f168201915b505050505081565b60036020528060005260406000206000915054906101000a900460ff1681565b60015481565b6000606080600060608060008711801561156157506001548711155b6115d3576040517f08c379a000000000000000000000000000000000000000000000000000000000815260040180806020018281038252601b8152602001807f5468652070726f64756374204964206973206e6f74207661696c64000000000081525060200191505060405180910390fd5b600660008881526020019081526020016000206000015460066000898152602001908152602001600020600101600660008a8152602001908152602001600020600201600660008b815260200190815260200160002060030154600660008c8152602001908152602001600020600401600660008d8152602001908152602001600020600501848054600181600116156101000203166002900480601f0160208091040260200160405190810160405280929190818152602001828054600181600116156101000203166002900480156116ee5780601f106116c3576101008083540402835291602001916116ee565b820191906000526020600020905b8154815290600101906020018083116116d157829003601f168201915b50505050509450838054600181600116156101000203166002900480601f01602080910402602001604051908101604052809291908181526020018280546001816001161561010002031660029004801561178a5780601f1061175f5761010080835404028352916020019161178a565b820191906000526020600020905b81548152906001019060200180831161176d57829003601f168201915b50505050509350818054600181600116156101000203166002900480601f0160208091040260200160405190810160405280929190818152602001828054600181600116156101000203166002900480156118265780601f106117fb57610100808354040283529160200191611826565b820191906000526020600020905b81548152906001019060200180831161180957829003601f168201915b50505050509150808054600181600116156101000203166002900480601f0160208091040260200160405190810160405280929190818152602001828054600181600116156101000203166002900480156118c25780601f10611897576101008083540402835291602001916118c2565b820191906000526020600020905b8154815290600101906020018083116118a557829003601f168201915b5050505050905095509550955095509550955091939550919395565b6118e661218f565b73ffffffffffffffffffffffffffffffffffffffff166000809054906101000a900473ffffffffffffffffffffffffffffffffffffffff1673ffffffffffffffffffffffffffffffffffffffff16146119a7576040517f08c379a00000000000000000000000000000000000000000000000000000000081526004018080602001828103825260208152602001807f4f776e61626c653a2063616c6c6572206973206e6f7420746865206f776e657281525060200191505060405180910390fd5b6119af61218f565b73ffffffffffffffffffffffffffffffffffffffff16ff5b600260009054906101000a900473ffffffffffffffffffffffffffffffffffffffff1681565b6119f561218f565b73ffffffffffffffffffffffffffffffffffffffff166000809054906101000a900473ffffffffffffffffffffffffffffffffffffffff1673ffffffffffffffffffffffffffffffffffffffff1614611ab6576040517f08c379a00000000000000000000000000000000000000000000000000000000081526004018080602001828103825260208152602001807f4f776e61626c653a2063616c6c6572206973206e6f7420746865206f776e657281525060200191505060405180910390fd5b600073ffffffffffffffffffffffffffffffffffffffff166000809054906101000a900473ffffffffffffffffffffffffffffffffffffffff1673ffffffffffffffffffffffffffffffffffffffff167f8be0079c531659141344cd1fd0a4f28419497f9722a3daafe3b4186f6b6457e060405160405180910390a360008060006101000a81548173ffffffffffffffffffffffffffffffffffffffff021916908373ffffffffffffffffffffffffffffffffffffffff160217905550565b6006602052806000526040600020600091509050806000015490806001018054600181600116156101000203166002900480601f016020809104026020016040519081016040528092919081815260200182805460018160011615610100020316600290048015611c275780601f10611bfc57610100808354040283529160200191611c27565b820191906000526020600020905b815481529060010190602001808311611c0a57829003601f168201915b505050505090806002018054600181600116156101000203166002900480601f016020809104026020016040519081016040528092919081815260200182805460018160011615610100020316600290048015611cc55780601f10611c9a57610100808354040283529160200191611cc5565b820191906000526020600020905b815481529060010190602001808311611ca857829003601f168201915b505050505090806003015490806004018054600181600116156101000203166002900480601f016020809104026020016040519081016040528092919081815260200182805460018160011615610100020316600290048015611d695780601f10611d3e57610100808354040283529160200191611d69565b820191906000526020600020905b815481529060010190602001808311611d4c57829003601f168201915b505050505090806005018054600181600116156101000203166002900480601f016020809104026020016040519081016040528092919081815260200182805460018160011615610100020316600290048015611e075780601f10611ddc57610100808354040283529160200191611e07565b820191906000526020600020905b815481529060010190602001808311611dea57829003601f168201915b5050505050908060060160009054906101000a900473ffffffffffffffffffffffffffffffffffffffff16908060070160009054906101000a900473ffffffffffffffffffffffffffffffffffffffff16908060080160009054906101000a900473ffffffffffffffffffffffffffffffffffffffff16908060090160009054906101000a900473ffffffffffffffffffffffffffffffffffffffff1690508a565b60008060009054906101000a900473ffffffffffffffffffffffffffffffffffffffff16905090565b611eda61218f565b73ffffffffffffffffffffffffffffffffffffffff166000809054906101000a900473ffffffffffffffffffffffffffffffffffffffff1673ffffffffffffffffffffffffffffffffffffffff1614611f9b576040517f08c379a00000000000000000000000000000000000000000000000000000000081526004018080602001828103825260208152602001807f4f776e61626c653a2063616c6c6572206973206e6f7420746865206f776e657281525060200191505060405180910390fd5b600073ffffffffffffffffffffffffffffffffffffffff168173ffffffffffffffffffffffffffffffffffffffff161415612021576040517f08c379a00000000000000000000000000000000000000000000000000000000081526004018080602001828103825260268152602001806122bd6026913960400191505060405180910390fd5b8073ffffffffffffffffffffffffffffffffffffffff166000809054906101000a900473ffffffffffffffffffffffffffffffffffffffff1673ffffffffffffffffffffffffffffffffffffffff167f8be0079c531659141344cd1fd0a4f28419497f9722a3daafe3b4186f6b6457e060405160405180910390a3806000806101000a81548173ffffffffffffffffffffffffffffffffffffffff021916908373ffffffffffffffffffffffffffffffffffffffff16021790555050565b60046020528060005260406000206000915090508054600181600116156101000203166002900480601f0160208091040260200160405190810160405280929190818152602001828054600181600116156101000203166002900480156121875780601f1061215c57610100808354040283529160200191612187565b820191906000526020600020905b81548152906001019060200180831161216a57829003601f168201915b505050505081565b600033905090565b828054600181600116156101000203166002900490600052602060002090601f016020900481019282601f106121d857805160ff1916838001178555612206565b82800160010185558215612206579182015b828111156122055782518255916020019190600101906121ea565b5b5090506122139190612297565b5090565b828054600181600116156101000203166002900490600052602060002090601f016020900481019282601f1061225857805160ff1916838001178555612286565b82800160010185558215612286579182015b8281111561228557825182559160200191906001019061226a565b5b5090506122939190612297565b5090565b6122b991905b808211156122b557600081600090555060010161229d565b5090565b9056fe4f776e61626c653a206e6577206f776e657220697320746865207a65726f20616464726573734d75737420626520616e2061646d696e20746f2063616c6c20746869732066756e6374696f6e2ea2646970667358221220f40f8a27b1074564def19a22d83a6cfec440ddca073b4a72d9419164775acf1764736f6c634300060000334d75737420626520616e2061646d696e20746f2063616c6c20746869732066756e6374696f6e2e",
  "source": "// SPDX-License-Identifier: UNLICENSED\npragma solidity >=0.6.0 <0.8.0;\n\n/// @title SupplyChain\n/// @author Supply Chain\n/// @notice Implements Decentralized Supply Chain\n\n\nimport \"./Ownable.sol\";\n\ncontract SChainDapp is Ownable {\n\n    /// @dev store the product count/id (public for getter())\n    uint public productIdCounter = 0;\n\n    address public scAdmin;\n    mapping(address => bool) public isSCadmins;\n    mapping(address => string) public isProductOwners;\n\n    mapping (address => string) public attestations;\n\n    /// @notice A Product:\n    /// @param Product Id: @productId\n    /// @param Product Name: @productName\n    /// @param Product Info: @productInfo\n    /// @param Product Name: @productValue\n    /// @param Product GPA: @productGpgga\n    /// @param Product Destination: @productDest\n    /// @param Product Producer: @productProducer\n    /// @param Product Distributor: @productDistributor\n    /// @param Product Retailer: @productRetailer\n    /// @param Product Consumer: @productConsumer\n    struct Product {\n        uint productId;\n        string productName;\n        string productInfo;\n        uint256 productValue;\n        string productGpgga;\n        string productDest;\n        address payable productProducer;\n        address payable productDistributor;\n        address payable productRetailer;\n        address productConsumer;\n    }\n \n    mapping (uint => Product) public products;\n\n    /// @notice LogMsgData should provide the MsgData\n    event LogMsgData(\n        bytes data\n    );\n\n    /// @notice LogAddProduct should provide info about the product\n    /// @param prodId the product id\n    /// @param prodName the product name\n    /// @param prodInfo the product info\n    /// @param prodValue the product value\n    /// @param prodGpgga the product GPA\n    /// @param prodProducer the product producer\n    /// @param prodDistributor the product distributor\n    /// @param prodRetailer the product retailer\n    /// @param prodConsumer the product consumer\n    event LogAddProduct(\n        uint prodId,\n        string prodName,\n        string prodInfo,\n        uint256 prodValue,\n        string prodGpgga,\n        string prodDest,\n        address prodProducer,\n        address prodDistributor,\n        address prodRetailer,\n        address prodConsumer\n    );\n\n    /// @notice Create a modifier that throws an error if the address !isAdmin\n    /// @param _isAdmin the new admin\n    modifier onlyAdmin(address _isAdmin) {\n        require(\n            isSCadmins[_isAdmin],\n            \"Must be an admin to call this function.\"\n        );\n        _;\n    }\n\n    /// @notice Calling the Ownable constructor to insure that the address deploying this contract is \n    /// regsitered as owner and to set owner as an admin\n    constructor() \n        public\n        Ownable()\n    {\n        scAdmin = owner();      \n        addAdmin(scAdmin);\n        addProduct(\n            \"Example Name\",\n            \"Example Info\",\n            1,\n            \"000N0W00\",\n            \"NY\"\n        );\n    }\n\n    /// @notice Payable fallback\n    receive() external payable {\n        emit LogMsgData(_msgData());\n    }\n\n    /// @notice kill the smart contract\n    function kill() public onlyOwner {\n        selfdestruct(_msgSender());\n    }\n    \n    /// @notice This function adds an MPadmin\n    /// @param _newAdmin the new admin\n    function addAdmin(address _newAdmin)\n        internal\n        virtual\n        onlyOwner\n    {  \n        isSCadmins[_newAdmin] = true;\n    }\n\n    /// @notice This function adds a Product\n    /// @dev The productId is derived from the counter\n    /// @param prodInfo Any product info\n    function addProduct(\n        string memory prodName,\n        string memory prodInfo,\n        uint256 prodValue,\n        string memory prodGpgga,\n        string memory prodDest\n    )\n        public\n        onlyAdmin(_msgSender())\n    {\n        productIdCounter++;\n\n        /// @notice update via productId\n        products[productIdCounter] = Product(\n            productIdCounter,\n            prodName,\n            prodInfo,\n            prodValue,\n            prodGpgga,\n            prodDest,\n            _msgSender(),\n            address(0),\n            address(0),\n            address(0)\n        );\n\n        emit LogAddProduct(\n            productIdCounter,\n            prodName,\n            prodInfo,\n            prodValue,\n            prodGpgga,\n            prodDest,\n            _msgSender(),\n            address(0),\n            address(0),\n            address(0)\n        );\n    }\n\n    /// @notice Returns Product\n    /// @return product's id\n    /// @return product's name\n    /// @return product's info\n    /// @return product's value\n    /// @return product's gpgga\n    /// @return product's dest\n  \n    function getProductById(uint _prodId)\n        public\n        view\n        returns (\n            uint,\n            string memory,\n            string memory,\n            uint256,\n            string memory,\n            string memory\n            /*\n            address,\n            address,\n            address,\n            address\n            */\n        )\n    {\n          require(\n              _prodId > 0 && _prodId <= productIdCounter,\n              \"The product Id is not vaild\"\n          );\n\n          return (\n              products[_prodId].productId,\n              products[_prodId].productName,\n              products[_prodId].productInfo,\n              products[_prodId].productValue,\n              products[_prodId].productGpgga,\n              products[_prodId].productDest\n              /*\n              products[_prodId].productProducer,\n              products[_prodId].productDistributor,\n              products[_prodId].productRetailer,\n              products[_prodId].productConsumer\n              */\n        );\n    }\n\n    /// @notice This function sets either the producer, distributor, retailer or consumer\n    /// @param _prodIdNum the productID to update\n    /// @param _changeType the address type to be updated\n    /// @param _newAddress the address to update\n    function setAddress(uint _prodIdNum, string memory _changeType, address payable _newAddress)\n        internal\n        virtual\n        onlyOwner\n    {\n        Product storage productToUpdate = products[_prodIdNum]; \n   \n        require(\n            productIdCounter > 0,\n            \"There should be at least one product.\"\n        );\n\n        require(\n            productToUpdate.productId == _prodIdNum,\n            \"The submitted product id should match the one to update.\"\n        );\n\n        if (keccak256(bytes(_changeType)) == keccak256(bytes(\"Producer\"))) {\n            productToUpdate.productProducer = _newAddress; \n        } else if (keccak256(bytes(_changeType)) == keccak256(bytes(\"Distributor\"))) {\n            productToUpdate.productDistributor = _newAddress;\n        } else if (keccak256(bytes(_changeType)) == keccak256(bytes(\"Retailer\"))) {\n            productToUpdate.productDistributor = _newAddress;\n        } else if (keccak256(bytes(_changeType)) == keccak256(bytes(\"Consumer\"))) {\n            productToUpdate.productConsumer = _newAddress;\n        } \n    }\n\n    function attest(string memory hash) public {\n       // console.log(msg.sender,\"attests to\",hash);\n       emit Attest(msg.sender,hash);\n       attestations[msg.sender] = hash;\n    }\n  \n    event Attest(address sender, string hash);\n\n}\n",
  "sourcePath": "/Users/kokom/DEV/HackFS/hkfsschain/contracts/SChainDapp.sol",
  "compiler": {
    "name": "solc",
    "version": "0.6.0+commit.26b70077.Emscripten.clang"
  },
  "schemaVersion": "3.2.3",
  "updatedAt": "2020-09-11T02:18:11.180Z",
  "networkType": "ethereum",
  "devdoc": {
    "methods": {
      "addProduct(string,string,uint256,string,string)": {
        "details": "The productId is derived from the counter",
        "params": {
          "prodInfo": "Any product info"
        }
      },
      "owner()": {
        "details": "Returns the address of the current owner."
      },
      "renounceOwnership()": {
        "details": "Leaves the contract without owner. It will not be possible to call `onlyOwner` functions anymore. Can only be called by the current owner.     * NOTE: Renouncing ownership will leave the contract without an owner, thereby removing any functionality that is only available to the owner."
      },
      "transferOwnership(address)": {
        "details": "Transfers ownership of the contract to a new account (`newOwner`). Can only be called by the current owner."
      }
    }
  },
  "userdoc": {
    "methods": {
      "addProduct(string,string,uint256,string,string)": {
        "notice": "This function adds a Product"
      },
      "constructor": "Calling the Ownable constructor to insure that the address deploying this contract is  regsitered as owner and to set owner as an admin",
      "getProductById(uint256)": {
        "notice": "Returns Product"
      },
      "kill()": {
        "notice": "kill the smart contract"
      }
    }
  }
}